:020000040800F2
:10000000D005002001010008B91000087F0C00088D
:10001000B7100008ED0A00084F18000800000000A3
:100020000000000000000000000000007D12000839
:10003000EF0A0008000000003911000881120008D2
:100040001B0100081B0100081B0100087B120008AF
:100050001B0100081B0100081B0100081B01000810
:100060001B0100081B0100081B0100081B01000800
:100070001B0100081B0100081B0100081B010008F0
:100080001B0100081B010008D50800081B0100081F
:100090004D1800081B0100081B0100081B01000887
:1000A0001B0100081B010008D3130008D11300082E
:1000B000D5130008411400081B010008910C00082A
:1000C000810C0008CD0D00081B0100081B01000871
:1000D0001B010008ED1500084D1600081B01000863
:1000E0001B010008791200081B010008DFF80CD082
:1000F00000F0B0FB00480047D11C0008D0050020EC
:100100000648804706480047FEE7FEE7FEE7FEE7B1
:10011000FEE7FEE7FEE7FEE7FEE7FEE70113000865
:10012000ED000008F0B480EA0102D20F4300B3EB07
:10013000410F02D20346084619464B0042D0C30D78
:10014000DDB2C1F3C7542C1B202C35DAC1F31601E4
:1001500041F4000502B16D42C4F1200605FA06F132
:1001600025412844B3EBD05F23D0C2B1012CA0EBD2
:10017000C35009DCF0BC4FF0004202EAC35200F564
:100180000000DBB200F0D5BA400000F1807000EB57
:10019000C350A0F1807040EAD170490009E04908DD
:1001A00041EAC071A0EBC35000F50000400800EB2D
:1001B000C350F0BC00F0B4BA5142012303EB41013B
:1001C000801AF6E7F0BC704781F00041AAE780F0A2
:1001D0000040A7E780EA010210B502F000424000AB
:1001E00026D04B0023D04FEA106101EB1361C0F31E
:1001F0005600C3F3560340F4000043F40003A0FB91
:100200000330A1F17F014FEA00401C0401D000F14E
:10021000010050EA134001D44000491EC3B20C064D
:1002200004EBD010401C4008802B02D003E00020DB
:1002300010BD20F00100002900DA0020104310BD9D
:1002400080EA010202F0004330B430F0004221F0B5
:10025000004015D0A0B1C0F3C755C2F3C754C2F3D4
:100260001601C0F31600651B41F4000140F40000C4
:100270007D35814201D36D1C00E04900002D02DA7A
:1002800030BC002070474FF400020024814201D3AB
:10029000091A144352084FEA4101F7D151B1814282
:1002A00002D14FF0004105E002D24FF0010101E020
:1002B0006FF0010104EBC55030BC184400F030BAB7
:1002C0002DE9FE4F074681EA0300C00F0E4601905C
:1002D00021F0004123F00044B81AA14105D238466C
:1002E000314617461E460B46024623F00040104397
:1002F00004D13846314603B0BDE8F08F350DC5F363
:100300000A00C3F30A510290401A0090402867DAAD
:10031000C3F3130040F4801B0198924620B10023E0
:10032000D2EB030A63EB0B0B00985946C0F1400275
:10033000504600F0C4F980460C4650465946009A93
:1003400000F0DCF9C0197141EF1785EA11533B4306
:100350003FD0019A4AB3009A012A11DC0022801A88
:1003600061EB05514FF0004303EA0555CDE9002547
:10037000801841F580114246234600F016FABAE78C
:100380002E050025401B61EB0601401941F5801246
:10039000001852412818A6F5001343EB020140EA69
:1003A000D47018EB0808644113E064084FEA380879
:1003B0004FF0000244EAC0744FEA0553801A61EB23
:1003C0000301801841F5801149084FEA3000801878
:1003D00059414246234603B0BDE8F04F00F0D8B97A
:1003E0000198012240000023D0EB020263EBE0738E
:1003F00001984FEAE074381A66EB0401EBE783F0EA
:1004000000435DE781F000415AE72DE9FE4F81EAA4
:10041000030421F0004504F0004423F000414FF0B4
:10042000000A009450EA050302D052EA010304D105
:100430000020014603B0BDE8F08FC1F30A53C5F3B5
:100440000A542344A3F2F3330193A0FB02B3C5F390
:10045000130545F4801CC1F3130141F480180CFB13
:10046000023300FB083E810A930A41EA8C5143EAB9
:100470008853A1FB03474FEA9C2505FB03734FEA12
:10048000982601FB06373D05260545EA1435BBEBEA
:1004900006016EEB0503850E920E45EA8C1542EAC5
:1004A0008812A5FB0206261E67EB00070C0D44EA26
:1004B0000334A61947EB1350C1F313044FF00003A4
:1004C0001946E5FB02014FEA033545EA1455019B45
:1004D0004FEA0432009CA3F10C03CDE900A445EAE5
:1004E000060502932B4600F060F9A3E72DE9F04DD5
:1004F00081EA030404F0004B21F0004714464FF05A
:10050000000A23F0004150EA070220D054EA010219
:100510001DD0C1F30A550246C1F31300C7F30A56B2
:10052000C7F3130340F4801143F48013A6EB0508CE
:10053000101BD64608F2FD3873EB010002D308F118
:10054000010801E092185B41B8F1000F03DA0020C6
:100550000146BDE8F08D00204FF4801506460746A1
:100560000EE0B2EB040C73EB010C04D3121B064338
:1005700063EB01032F436D084FEA300092185B4193
:1005800050EA050CEDD152EA030012D082EA0400D1
:1005900083EA0105284303D100224FF0004308E01D
:1005A000101B8B4102D20122002302E06FF00102F6
:1005B00053101AEB060047EB085110EB0A0041EB11
:1005C0000B01BDE8F04D00F0E3B8C10F80EAE07028
:1005D0000844CA079623002100F0ABB896230022F6
:1005E000114600F0A6B80EB5C10F80EAE0700844CD
:1005F000CA07002140F233438DE80E000A460B463D
:1006000000F0D3F803B000BD0EB5002240F2334332
:10061000CDE9002202931346114600F0C6F803B05C
:1006200000BD00F0004220F00040C10DC0F31600F4
:1006300040F400007F2901DA00207047962903DC8E
:10064000C1F19601C84001E096398840002AF4D0F3
:100650004042704770B5C1F30A5201F000450024D2
:10066000C1F3130140F2FF3341F480119A4201DAE1
:10067000002070BD40F233439A42A2F2334203DCC1
:10068000524200F02BF800E090402C43F1D0404261
:1006900070BD30B50B46014600202022012409E040
:1006A00021FA02F59D4205D303FA02F5491B04FA2B
:1006B00002F52844151EA2F10102F1DC30BD202A0A
:1006C00004DB203A00FA02F1002070479140C2F1A9
:1006D000200320FA03F3194390407047202A04DBDB
:1006E000203A21FA02F00021704721FA02F3D040AB
:1006F000C2F120029140084319467047202A06DBC8
:10070000CB17203A41FA02F043EAE07306E041FADF
:1007100002F3D040C2F120029140084319467047CD
:100720000029A8BF7047401C490008BF20F0010005
:10073000704710B4B0FA80FC00FA0CF050EA0104E3
:1007400004BF10BC704749B1CCF1200421FA04F475
:1007500011FA0CF118BF012121430843A3EB0C014E
:10076000CB1D4FEA00614FEA102048BF0020BCBFFC
:1007700010BC704700EBC35010440029A4BF10BC4C
:100780007047401C490008BF20F0010010BC7047B2
:1007900010B5002B08DA401C41F1000192185B41B2
:1007A0001A4301D120F0010010BD2DE9FF4D934601
:1007B00011B1B1FA81F202E0B0FA80F22032924631
:1007C000FFF77DFF039A0746884640EA0B00114376
:1007D0005B46084304D13846414604B0BDE8F08D7D
:1007E000114653EA020016D0CAF140025846FFF7FC
:1007F00075FF04460D464FF00106584652460399D0
:10080000FFF75DFF084300D10026344345EAE67553
:10081000274345EA08080E984FF00005A0EB0A01AF
:100820004FEAD7200A314FEA47532A4640EA485058
:100830004FEAD82402D500200146CEE7281844EB21
:100840000151DDE90C45001904B06941BDE8F04DE6
:100850009EE70000064C074D06E0E06840F001030B
:1008600094E8070098471034AC42F6D3FFF742FCF7
:10087000442300086423000870B501EB020410F85B
:10088000015B15F0070301D110F8013B2A1106D1D5
:1008900010F8012B03E010F8016B01F8016B5B1EEF
:1008A000F9D12B0705D40023521E0FD401F8013BC8
:1008B000FAE710F8013B02F10202A1EB030303E0A7
:1008C00013F8015B01F8015B521EF9D5A142D6D3A2
:1008D000002070BD10B50E4C4FF49061204600F022
:1008E00069F820B14FF49061204600F04BF8094CB4
:1008F0004FF49061204600F05DF8002808BF10BD5D
:100900004FF490612046BDE8104000F03BB8000075
:10091000002401400028014010B586B000224FF4A9
:1009200060200121CDE902028DF80420144C8DF8DD
:1009300005108DF8101000926946204600F052F81C
:100940000121204600F022F8072301220921204638
:1009500000F06EF8204600F0B6F8204600F03AF8B5
:100960000028FAD1204600F0BCF8204600F017F825
:100970000028FAD10121204600F0AAF806B010BDE7
:10098000002401406FEA112101607047002981684D
:1009900014BF41F0010121F001018160704701465F
:1009A0000020896811F0040F18BF01207047C06C47
:1009B00080B2704710B40022D0F804C00B0ACCB249
:1009C00001680CEA040019421CBF002801221046ED
:1009D00010BC704701460020896811F0080F18BF4D
:1009E0000120704710B4426891F804C022F480726C
:1009F00022F470220B6842EA0C221A434260826899
:100A00000A4B4C791A40D1E902C342EA440243EA54
:100A10000C031A438260C26A097C22F47002491EE8
:100A2000C9B242EA0151C16210BC7047FDF7F1FF43
:100A300030B44FF0070C09290DD9C568A1F10A049B
:100A400004EB44040CFA04FC25EA0C0CA3404CEA29
:100A50000303C3600AE0046901EB41050CFA05FCDD
:100A600024EA0C0CAB404CEA030303611F23072A62
:100A70000CD2D0F834C0521E02EB820293402CEA12
:100A8000030391401943416330BC70470D2A0DD2D6
:100A9000D0F830C0D21F02EB820403FA04F22CEA31
:100AA0000202A1401143016330BC7047D0F82CC052
:100AB0000D3A02EB820293402CEA03039140194362
:100AC000C16230BC7047816841F0080181607047A5
:100AD0000029816814BF41F4A00121F4A0018160C4
:100AE0007047816841F0040181607047FEE77047FC
:100AF000F8B51025ADF80050344F8DF8035003249D
:100B00008DF802406946384600F064F82026ADF8BA
:100B100000606946384600F05DF8ADF800602C4E84
:100B20008DF803508DF802406946304600F052F8C7
:100B30000225ADF8005000208DF803008DF802402A
:100B40006946304600F046F82802ADF800008DF8FE
:100B5000025018208DF803006946384600F03AF834
:100B60004FF48160ADF8000004208DF80300694661
:100B7000384600F02FF8C020ADF800008DF8024094
:100B80001C258DF803506946304600F023F8A0027A
:100B9000ADF800008DF802408DF8035069463046EC
:100BA00000F018F80121480500F0ECFA00214FF49C
:100BB000001000F0E7FA0121880500F0E3FA0021B7
:100BC0004FF4800000F0DEFAF8BD0000000801409C
:100BD000000C01402DE9F001CB78002213F0100F3A
:100BE00003F00F0C1CBF8B7843EA0C0C0B880F260C
:100BF000012513F0FF0F18BF046819D00F8805FAFC
:100C000002F31F409F420FD1970006FA07F824EA2B
:100C100008040CFA07F73C43CF78282F08BF43613C
:100C200002D0482F08BF0361521C082AE6D3046093
:100C30000A88FF2A87BF44680022BDE8F001704798
:100C400002F108030F8805FA03F31F409F420FD1FA
:100C5000970006FA07F824EA08040CFA07F73C4361
:100C6000CF78282F08BF4361CF78482F08BF036192
:100C7000521C082AE4D34460BDE8F0017047FEE747
:100C800002488178491C817070470000F8000020FC
:100C900070B5344D284600F090F96FF44031324C75
:100CA00040180ED0012827D0A0F5802081381DD013
:100CB000022818BF70BD01212846BDE8704000F031
:100CC0005CB9E07838B10122D021284600F0E9F97A
:100CD0000020E07070BD0022D021284600F0E1F92C
:100CE000E078401CE0702148A06070BD2178284663
:100CF000BDE8704000F0DDB900224FF4C061284625
:100D000000F062F9A078002818BF194E24D0C0B2B4
:100D1000012807D10021284600F0C6F80121284605
:100D200000F034F93146284600F0C7F888B1A078C1
:100D3000022803D10021284600F0B6F8284600F02A
:100D4000ADF90146A06800F8011BA060A078401E24
:100D5000A070A0780028DAD12846BDE870400121B3
:100D600000F0A2B800540040F8000020B6010020B6
:100D70004000030010B5134C84B0204600F0E0F8AA
:100D80000020ADF804004BF6FF70ADF806004020DF
:100D9000ADF808000001ADF80A000001ADF80C0044
:100DA000094800900121204600F09AF86946204643
:100DB00000F012F901225102204600F005F904B0BA
:100DC00010BD000000580040F049020010B5334C3F
:100DD000204600F0F2F86FF440314118304812D04C
:100DE000A1F58021813935D0022918BF10BD01211C
:100DF000204600F0CBF82046BDE8104000224FF41A
:100E0000007100F0E1B8B0F9040001280DD002280B
:100E100012D0032817D0042818BF10BD0022204686
:100E2000BDE81040582100F03CB920460022BDE842
:100E30001040522100F035B920460022BDE8104094
:100E4000542100F02EB920460022BDE81040562162
:100E500000F027B9B0F90400124901280CD002288B
:100E600010D0032814D0042818BF10BD497820469C
:100E7000BDE8104000F01DB909782046BDE81040DB
:100E800000F017B989782046BDE8104000F011B98C
:100E9000C9782046BDE8104000F00BB9005800406A
:100EA000F8000020F00000200029018814BF41F460
:100EB000806121F4806101807047838A0022008B69
:100EC00043EA004020F07F4031EA000008BF0122E1
:100ED00010467047C94381827047C9438182704779
:100EE0000029018814BF41F0010121F001010180B6
:100EF0007047000010B5114C84B0204600F020F877
:100F00000020ADF804004BF6FF70ADF8060040205D
:100F1000ADF808000001ADF80A000001ADF80C00C2
:100F200049F64040009001212046FFF7D9FF69466D
:100F3000204600F051F804B010BD000000540040FD
:100F4000A0F1804110B5B1F5A8414FF0010109D1E0
:100F5000480500F017F9BDE8104000214FF40010DB
:100F600000F010B94FF4800000F00CF9BDE810401B
:100F700000214FF4800000F005B90029018814BF5A
:100F800041F4807121F4807101807047002901884B
:100F900014BF41F4007121F40071018070470022F8
:100FA0000B0F21F07F4112BF1430090C183000687C
:100FB000084218BF012210467047818A008B41EA1F
:100FC000004020F07F407047002A828814BF114300
:100FD00022EA01018180704770B50446808886B09E
:100FE0000D4620F03F06684600F0E4F829490298D3
:100FF000B0FBF1F189B246EA0102A280228822F018
:1010000001022280244B2A689A4209D85200B0FB80
:10101000F2F080B2042838BF0420491C218424E067
:10102000EB88A3F53F4CBCF1FF0C05D102EB42026B
:10103000B0FBF2F080B208E002EBC20303EB021255
:10104000B0FBF2F080B240F480400205120D08BF00
:1010500040F0010040F400404FF4967251434FF4C9
:101060007A72B1FBF2F1491C2184A083208840F000
:10107000010020802088A9886A8920F00A0020F4D5
:101080008060114308432080A88929890843208172
:1010900006B070BD40420F00A0860100008AC0B2B9
:1010A0007047002A14BF41F0010101F0FE010182E6
:1010B000704701827047FEE7704770B4C3780278CA
:1010C0000F244FF0E0214FF0010C03B3D1F80C3D99
:1010D000867803F4E063C3F5E0631B0AC3F10405FB
:1010E00024FA03F344781E4004FA05F333430A4418
:1010F0001B0182F800340078420900F01F0001EB68
:1011000082010CFA00F0C1F8000170BC704702F0D7
:101110001F000CFA00F0520901EB8201C1F88001B6
:1011200070BC7047034940F0FD7040F0806008607B
:10113000704700000CED00E070470000044951F8D2
:101140002010CA68034B33F810005040C860704745
:10115000000000203C23000803494A6822F4404272
:10116000104348607047000000100240044A002904
:10117000D16914BF084321EA0000D0617047000024
:1011800000100240044A0029116914BF084321EAF3
:10119000000010617047000000100240044A00295E
:1011A000916914BF084321EA000090617047000074
:1011B0000010024026494B68264A13F00C0318BF62
:1011C000042B01D0082B01D0026015E04A684B685F
:1011D00002F470124FF0020C0CEB924213F4803FB9
:1011E00003D04B6813F4003F03D01B4B5A430260FB
:1011F00002E0184B5A4302604A6802F0F0021309F9
:10120000164AD35CD0F800C02CFA03F34360D1F83F
:1012100004C00CF4E06C4FEA1C2C12F80CC023FA4A
:101220000CFCC0F808C0D1F804C00CF4605C4FEAB4
:10123000DC2C12F80C2023FA02F2C2604968084B39
:1012400001F44041890B595CB2FBF1F10161704737
:101250000010024000127A0000093D0080010020C9
:101260007C01002003494A6822F4E0621043486090
:101270007047000000100240704770477047000040
:10128000184810B58188491C09B28180052923D0EE
:10129000164C15492046FFF71DFE15492046FFF75D
:1012A0001CFE012251022046FFF78EFE012120463E
:1012B000FFF763FE0F480178491C01700E48FFF7E5
:1012C00076FB0E490A88904234BF501E501C08809D
:1012D000BDE8104000F07EB900218180FFF74AFD93
:1012E000E8E70000F8000020000700100058004068
:1012F0000B4700030C000020002401400E000020DA
:101300002F48016841F00101016041682D4A1140F8
:101310004160016821F4102121F0807101600168B1
:1013200021F48021016042684FF41F0122F4FE0283
:10133000426081600268002142F4803202600268EB
:10134000491C12F4003F02D1B1F5A06FF7D101683A
:1013500011F4003F2FD01C490A6842F010020A60C5
:101360000A6822F003020A600A6842F001020A6079
:10137000416841604168416041684160416821F4D1
:101380007C114160416841F4F8114160016841F00D
:1013900080710160016811F0007FFBD0416821F08D
:1013A00003014160416841F002014160416801F080
:1013B0000C010829FAD105494FF000600860704718
:1013C000001002400000FFF80020024008ED00E09D
:1013D000704770477047000030B587B04FF6FF7018
:1013E000ADF814000520ADF810000024134DADF841
:1013F0001640ADF8124004A9284600F09DF8ADF85B
:1014000000400120ADF8020040F2DC50ADF80600CB
:10141000ADF808406946284600F044F80021284607
:1014200000F082F801220221284600F033F8012161
:10143000284600F024F807B030BD0000000400404A
:1014400010B50B4C0221204600F016F80948007830
:1014500000281CBF0220FFF771FE204600F018F89C
:1014600000F2DC5081B22046BDE8104000F062B8C6
:10147000000400400D000020C9430182704700298C
:10148000018814BF41F0010121F001010180704782
:10149000808E7047002A828914BF114322EA01011D
:1014A0008181704770B4028C22F001020284028CA8
:1014B0008388B0F818C00D880C892CF0730C22F0CA
:1014C00002024E8845EA0C0C22433243A0F18045CB
:1014D000B5F596351CBFA0F18044B4F59A340DD013
:1014E000A0F18044B4F5A0341FBFA0F18044B4F54E
:1014F000A234A0F18044B4F5A4340DD14C8922F07B
:10150000080222438C8822F0040222438D8923F4AE
:101510004073CC892B4323438380A0F818C0C9882B
:101520008186028470BC7047028B22F0080211434E
:10153000018370478186704710B40288234BDFF81F
:1015400090C0984218BF604511D0B0F1804F1CBFC9
:10155000A0F18044B4F5806409D0A0F18044B4F5D2
:1015600000641CBFA0F18044B4F5406403D14C88F2
:1015700022F070022243A0F18044B4F580541CBFD5
:10158000A0F18044B4F5A05403D0CC8822F440727A
:10159000224302808A88984282850A88028518BF81
:1015A00060450DD0A0F18042B2F5A0321FBFA0F17E
:1015B0008042B2F5A232A0F18042B2F5A43201D14C
:1015C000097A01860121818210BC7047002C0140FC
:1015D000003401400448C168002908BF7047C16851
:1015E000491EC160704700000C00002070B5134E0A
:1015F00040F22771304600F063F8002808BF70BD44
:101600000F4D104C6078295C401C6070304600F033
:1016100019F90D4960780978884205D0284410F8F6
:10162000010C0A2818BF70BD002240F22771304615
:1016300000F06DF80020607070BD000000380140BF
:101640001C000020F8000020F400002010B5034822
:1016500000F0F4F8BDE8104000F07EBD004400400A
:101660000029818914BF41F4005121F40051818186
:101670007047000010B584B04FF4E13000900020B6
:10168000ADF804004FF4C061ADF80600ADF80810E5
:10169000ADF80C000C20094CADF80A006946204654
:1016A00000F04EF8012240F22551204600F02FF8BC
:1016B00001212046FFF7D4FF04B010BD00380140DF
:1016C00010B401F01F0201240023C1F3421C04FAEC
:1016D00002F2BCF1010F04BFB0F80CC00CEA020228
:1016E00008D0BCF1020F0CBFB0F810C0B0F814C0A5
:1016F0000CEA0202090A008804FA01F1002A00EA51
:1017000001001CBF00280123184610BC7047C1F31C
:10171000421301F01F014FF0010C0CFA01F1012BF3
:1017200008BF0C3003D0022B0CBF10301430002A3D
:10173000026814BF114322EA0101016070470000F2
:1017400030B50446008A85B00D464CF6FF7108405E
:10175000E98808432082A0894EF6F3110840A98841
:101760002A8911436A8910430843A081A08A4FF651
:10177000FF410840A9890843A0826846FFF71AFD87
:10178000A4F18040B0F59C300CBF03980298A18969
:1017900011F4004F00EBC00101EB0010296814BFE9
:1017A00049008900B0FBF1F0114A6FF0180CA2FB60
:1017B0000031490909010B0903FB0CF3B4F80CC013
:1017C00000EB830032231CF4004F14BF03EBC00076
:1017D00003EB0010A2FB00204FEA501014BF00F0F2
:1017E000070000F00F000843208105B030BD000065
:1017F0001F85EB5110B584B04FF4164000900020C7
:10180000ADF80400ADF80600ADF80800ADF80C0026
:101810000420094CADF80A0069462046FFF790FF06
:10182000012240F225512046FFF771FF0121204699
:10183000FFF716FF04B010BD004400408088C0F3DD
:1018400008007047C1F30801818070477047FEE7C8
:101850000FB4084B10B504A902AA039800F01CF8B5
:10186000044602A9002000F0BBF9204610BC5DF838
:1018700014FB0000E11B000802E008C8121F08C1A9
:10188000002AFAD170477047002001E001C1121F01
:10189000002AFBD1704700002DE9FF4F8DB00546AF
:1018A0008846002667E125287AD100246D1CB64AB7
:1018B000A146A34601212B78203B01FA03F01042F8
:1018C00002D004436D1CF6E728782A2810D06FF068
:1018D0002F022878A0F13001092915D809EB8901D8
:1018E00002EB410144F0020400EB01096D1CF0E73A
:1018F00058F8049BB9F1000103DA44F40054C1F133
:10190000000944F002046D1C28782E2817D115F820
:10191000010F44F004042A280ED06FF02F0228781B
:10192000A0F1300109290AD80BEB8B0102EB410130
:1019300000EB010B6D1CF2E758F804BB6D1C287816
:101940006C280FD006DC4C2817D068280DD06A28E8
:1019500014D104E0742810D07A280FD10DE044F49B
:1019600000140AE044F4801401E044F4401469785F
:10197000814202D16D1C04F580146D1C2878692801
:1019800066D007DC002875D0632828D0642807D1EA
:101990005EE005E06E2808D073282AD075287AD03A
:1019A000DDE90F129047761CE4E0C4F302500228F0
:1019B00009D003280DD0D8F8001004280DD00E60EF
:1019C00008F10408D6E0D8F80010F217C1E9006267
:1019D000F6E7D8F800100E80F2E70E70F0E758F83E
:1019E000041B8DF8001000208DF80100EA4601204C
:1019F00003E058F804AB4FF0FF3061074FF00007E9
:101A000001D40AE07F1C5F450DDA8742FADB1AF841
:101A100007100029F6D106E07F1C8742FCDB1AF88C
:101A200007100029F8D1DDE90F23A9EB0700814653
:101A3000214600F0BEF83044C61904E0DDE90F127B
:101A40001AF8010B90477F1EF8D2214648468CE0D9
:101A50000A2758F8040BC4F30251032900D100B23D
:101A6000042900D140B2002806DAC0F100004FF08E
:101A70002D0104E083E00EE0210504D52B218DF833
:101A80002C10012103E0E10710D02021F7E70DF130
:101A9000200A099113E00A2758F8040BC4F30251F5
:101AA000032900D180B2042900D1C0B20021EEE7A1
:101AB0003946FEF7EEFD01F130020AF8012D00284B
:101AC000F6D1ADEB0A0000F120000890600702D5C6
:101AD00024F4803401E04FF0010B089A00205946AD
:101AE000934501DDA1EB0200834600EB020109985A
:101AF0000144A9EB01000A90E00306D4DDE90F23BD
:101B000021460A9800F055F8064400270DF12C09EB
:101B100006E0DDE90F1219F807009047761C7F1CDC
:101B200009988742F5DBE0030CD5DDE90F23214658
:101B30000A9800F03EF8064404E0DDE90F12302078
:101B40009047761CBBF10001ABF1010BF5DC05E021
:101B5000DDE90F121AF8010B9047761C0899481E10
:101B600008900029F4DC0A982146DDE90F2300F0F3
:101B70000DF806446D1C287800287FF494AE11B04F
:101B80003046BDE8F08F0000092801002DE9F04142
:101B90000446002517461E46880405D406E039464B
:101BA0002020B04705F10105641EF8D52846BDE8A0
:101BB000F0812DE9F04104460025302790461E466D
:101BC000C80300D42027880405D506E041463846DE
:101BD000B04705F10105641EF8D52846BDE8F0813F
:101BE0000A68531C0B601070704700002DE9F04725
:101BF0000646304D002430482C620F46A04600892E
:101C0000FEF7ECFC2D49FEF7DFFA2D49FEF718FB35
:101C1000E86110F1FF4F28BFEC61A14629486C62D2
:101C2000294950F8270001EB8704C6EB80062648B7
:101C300040F827602878022802D1206930442061CA
:101C4000A068301A686010F1C80FB8BF6FF0C70005
:101C500003DBC828C8BFC82000DD6860FEF7B5FCFC
:101C60004946FEF7B7FA07462069FEF7AEFC414643
:101C7000FEF7B0FA80463046FEF7A7FCE969FEF7AA
:101C8000A9FA4146FEF74EFA3946FEF74BFAFEF73F
:101C9000C8FC42F21071A0618842C8BF42F21070C5
:101CA0000A49A0618842D8BF0846A660A061BDE885
:101CB000F087000014010020A40100200020E4456A
:101CC00000401C46C001002040010020F0D8FFFF6A
:101CD00082B0FFF715FB4FF48060FFF7C3FA4FF4B3
:101CE0008040FFF739FA01210D20FFF757FA012153
:101CF0000220FFF73BFA01214802FFF74FFA0121CA
:101D00004805FFF733FA01218805FFF72FFA012173
:101D10008803FFF743FA01214804FFF727FA4FF43D
:101D20004070FFF7FFF91F208DF8000001268DF8A5
:101D300001608DF802608DF803606846FFF7BDF919
:101D400021208DF800008DF801608DF802608DF87B
:101D500003606846FFF7B1F91D208DF800000027E9
:101D60008DF801708DF802708DF803606846FFF7FA
:101D7000A4F925208DF8000003248DF801400220ED
:101D80008DF802008DF803606846FFF796F926206B
:101D90008DF800008DF801408DF802408DF8036049
:101DA0006846FFF78AF94FF0E024202084F8230DDD
:101DB000FEF79EFE2C484FF47A750068B0FBF5F0F4
:101DC000B0F1807F4FD220F07F40401E6061F02054
:101DD00084F8230DA76107202061FFF74BFCFFF774
:101DE00009FDFEF7C7FFFEF797FDFFF7F5FAFFF7CE
:101DF00081F81E4CE560E0680028FCD11C4DDFF83E
:101E0000749040F2AE7820780A28FCD92770082216
:101E100017491B2000F016FA288840BA60816888AC
:101E200040BAA080A88840BAE080E88840BA208103
:101E300000F03EF8B4F90830B4F90620CDE90023EB
:101E4000B4F90430B4F90A200BA11848FFF700FDDB
:101E5000012240F227714846FFF759FC608880450F
:101E600088BF6670CFE7FEE7900100200C000020DD
:101E7000B60100200038014054656D7065726174D0
:101E800075723A2535643B204779726F583A25358B
:101E9000643B204779726F593A2535643B20477976
:101EA000726F5A3A2535643B200D0A001C00002051
:101EB0002DE9F05F664DE8886649C968401AFEF76B
:101EC00092FB0022644BFEF711FBFEF7C3FB634E4F
:101ED000F060604829884068401A00EBD0704010DC
:101EE000706068885B490968401A00EBD070401048
:101EF0003060A88857498968401AB0605848002166
:101F0000B0F90000FFF772FE56480121B0F9000059
:101F1000FFF76CFE5448564CDFF85081B0F90000D2
:101F2000C4F80880B16804F1540600EB81073760FB
:101F30007068381AFEF749FB2169FEF74BF98146B4
:101F4000B068FEF742FBE168FEF744F98246384686
:101F5000FEF73BFB4146FEF73DF95146FEF7E2F83E
:101F60004946FEF731F9FEF75CFB7760F060E888E0
:101F7000FEF74AFBDFF8FC80DFF8FC9042464B4658
:101F8000FEF743FA06460F466069FEF72CFBDFF8C2
:101F9000ECA0DFF8ECB052465B46FEF736FA32466C
:101FA0003B46FEF78DF9FEF755FB064660616889F2
:101FB000FEF72AFB42464B46FEF727FA07460D4638
:101FC000A069FEF710FB52465B46FEF71EFA3A4642
:101FD0002B46FEF775F9FEF73DFBA061024623781C
:101FE00000202849012542F2283C9BB143F2D40746
:101FF00042F2FC18012B18D0022B18BFBDE8F09F4D
:1020000000F042F8A069B842BCBF6069404509DBF6
:10201000BDE8F09F0870C870487088706245D8BFEE
:10202000BDE8F09F2570BDE8F09F1E230B70CB70BC
:102030004B708B709445C4BF2070BDE8F09F9742F1
:10204000BDBF464502202070BDE8F09FBDE8F09F6F
:10205000A4010020E00000200000F83FC0010020A3
:10206000100000201200002014000020CDCC4C3DB8
:10207000140100208014AE47E17A843FAE47E17A34
:1020800014AEEF3FF00000202DE9F0012E482F4F55
:102090002F4AC56807F12800D7F81880C668A5EB55
:1020A0000801881982FB00108110A1EBE073A7F1F1
:1020B0002C011E2427484FF0FF0C8B621E2BB8BF4B
:1020C000047004DBFF2BCCBF80F800C0037005EB6D
:1020D0000803334482FB03834FEAA308A8EBE373AE
:1020E0008B621E2BB8BFC47004DBFF2BCCBF80F803
:1020F00003C0C370FF69EB1B9B1B82FB03834FEA8A
:10210000A308A8EBE3738B621E2BB8BF447004DBFB
:10211000FF2BCCBF80F801C04370EB199B1B82FBE7
:1021200003329310A3EBE2728A621E2ABEBF847050
:10213000BDE8F0017047FF2ACCBF80F802C0827072
:10214000BDE8F00170470000C00100204001002000
:10215000ABAAAA2AF000002000233349FF2801BFC0
:102160004A78FF2A0B708B7008BF7047F0B42E4A74
:1021700091F800C094780832BCF1000F1DD0CD78E2
:10218000AC451FD96FEA040C0CF0FF0C81F802C0BB
:10219000BCF1FF0F04BF4FF0FE0C81F802C00CF041
:1021A000FF0C60453CD1214C92F800C06578E67880
:1021B0002779BCF11F0F15D10EE01F280CBF052396
:1021C0000423CB7002F80C0022188A700CF1010273
:1021D0000A704870F0BC7047154C2570154C26707D
:1021E000154C27700CF0F004102C19D10CF00F04D2
:1021F0000A2C15D2DFF844C08CF8015092788CF884
:1022000000208CF803600E4D8CF80270BCF80020A2
:1022100025F81420621CD4B2BCF8022025F8142042
:102220000B708B70D5E70000040100200C0100202A
:10223000F6000020F7000020F50000200801002033
:10224000A40100202DE9F047364F80460E46154682
:102250004FF400313846FEF7A2FE0028F8D10121E4
:102260003846FEF78AFE304C38462146FEF725FEFA
:102270000028F9D00022D0213846FEF712FFDFF8FF
:10228000AC9038464946FEF718FE0028F9D0414682
:102290003846FEF70EFFDFF8988038464146FEF7D5
:1022A0000CFE0028F9D001213846FEF766FE2146D3
:1022B0003846FEF702FE0028F9D00122D0213C4624
:1022C0003846FEF7EEFE1B4F20463946FEF7F5FD79
:1022D0000028F9D0002D18BF174F1CD0012D07D1B1
:1022E00000212046FEF7E0FD01212046FEF74EFECC
:1022F00039462046FEF7E1FD58B1022D03D10021F9
:102300002046FEF7D1FD2046FEF7C8FE06F8010B79
:102310006D1E002DE2D12046BDE8F0470121FEF7F9
:10232000C3BD00000054004001000300820007000C
:10233000840007000200030040000300100020009A
:10234000200000006423000800000020A401000019
:1023500078080008B4230008A40100202C04000021
:1023600088180008113C080140041A0C0411C3101D
:10237000270810B148616C6C6F2121203A2D29206B
:102380000D0A2001218B332B041A6C104132C2122A
:102390001B0245084BDB170401200312C0763C02E8
:1023A0000406852D0102030404150607080984515B
:0423B0002502691485
:04000005080000ED02
:00000001FF
