:020000040800F2
:10000000A005002001010008B118000875140008BF
:10001000AF180008810A0008C7200008000000008F
:10002000000000000000000000000000E51A0008C9
:10003000410B00080000000031190008E91A00080F
:100040001B0100081B0100081B010008E31A00083F
:100050001B0100081B0100081B0100081B01000810
:100060001B0100081B0100081B0100081B01000800
:100070001B0100081B0100081B0100081B010008F0
:100080001B0100081B010008690800081B0100088B
:10009000C52000081B0100081B0100081B01000807
:1000A0001B0100081B0100083B1C0008391C00084C
:1000B0003D1C0008A91C00081B0100088914000849
:1000C00079140008C51500081B0100081B01000871
:1000D0001B010008551E0008C51E00081B01000872
:1000E0001B010008E11A00081B010008DFF80CD012
:1000F00000F0A8FB00480047BD210008A005002033
:100100000648804706480047FEE7FEE7FEE7FEE7B1
:10011000FEE7FEE7FEE7FEE7FEE7FEE7691B0008F5
:10012000ED00000840EA01039B0703D009E008C97D
:10013000121F08C0042AFAD203E011F8013B00F8AC
:10014000013B521EF9D2704730B50EE003460A4615
:1001500001E05B1C521C1C781578AC4201D1002CCC
:10016000F7D115F0FF0F04D0401C0278002AEDD122
:10017000002030BDF0B480EA0102D20F4300B3EB9F
:10018000410F02D20346084619464B0042D0C30D28
:10019000DDB2C1F3C7542C1B202C35DAC1F3160194
:1001A00041F4000502B16D42C4F1200605FA06F1E2
:1001B00025412844B3EBD05F23D0C2B1012CA0EB82
:1001C000C35009DCF0BC4FF0004202EAC35200F514
:1001D0000000DBB200F0A5BA400000F1807000EB37
:1001E000C350A0F1807040EAD170490009E049088D
:1001F00041EAC071A0EBC35000F50000400800EBDD
:10020000C350F0BC00F084BA5142012303EB41011A
:10021000801AF6E7F0BC704781F00041AAE780F051
:100220000040A7E780EA010210B502F0004240005A
:1002300026D04B0023D04FEA106101EB1361C0F3CD
:100240005600C3F3560340F4000043F40003A0FB40
:100250000330A1F17F014FEA00401C0401D000F1FE
:10026000010050EA134001D44000491EC3B20C06FD
:1002700004EBD010401C4008802B02D003E000208B
:1002800010BD20F00100002900DA0020104310BD4D
:100290002DE9FE4F074681EA0300C00F0E4601908C
:1002A00021F0004123F00044B81AA14105D238469C
:1002B000314617461E460B46024623F000401043C7
:1002C00004D13846314603B0BDE8F08F350DC5F393
:1002D0000A00C3F30A510290401A0090402867DADE
:1002E000C3F3130040F4801B0198924620B1002311
:1002F000D2EB030A63EB0B0B00985946C0F14002A6
:10030000504600F0D4F980460C4650465946009AB3
:1003100000F0ECF9C0197141EF1785EA11533B4326
:100320003FD0019A4AB3009A012A11DC0022801AB8
:1003300061EB05514FF0004303EA0555CDE9002577
:10034000801841F580114246234600F026FABAE7AC
:100350002E050025401B61EB0601401941F5801276
:10036000001852412818A6F5001343EB020140EA99
:10037000D47018EB0808644113E064084FEA3808A9
:100380004FF0000244EAC0744FEA0553801A61EB53
:100390000301801841F5801149084FEA30008018A8
:1003A00059414246234603B0BDE8F04F00F0E8B99A
:1003B0000198012240000023D0EB020263EBE073BE
:1003C00001984FEAE074381A66EB0401EBE783F01A
:1003D00000435DE781F000415AE72DE9FE4F81EAD5
:1003E000030421F0004504F0004423F000414FF0E5
:1003F000000A009450EA050302D052EA010304D136
:100400000020014603B0BDE8F08FC1F30A53C5F3E5
:100410000A542344A3F2F3330193A0FB02B3C5F3C0
:10042000130545F4801CC1F3130141F480180CFB43
:10043000023300FB083E810A930A41EA8C5143EAE9
:100440008853A1FB03474FEA9C2505FB03734FEA42
:10045000982601FB06373D05260545EA1435BBEB1A
:1004600006016EEB0503850E920E45EA8C1542EAF5
:100470008812A5FB0206261E67EB00070C0D44EA56
:100480000334A61947EB1350C1F313044FF00003D4
:100490001946E5FB02014FEA033545EA1455019B75
:1004A0004FEA0432009CA3F10C03CDE900A445EA15
:1004B000060502932B4600F070F9A3E72DE9F04DF5
:1004C00081EA030404F0004B21F0004714464FF08A
:1004D000000A23F0004150EA070220D054EA01024A
:1004E0001DD0C1F30A550246C1F31300C7F30A56E3
:1004F000C7F3130340F4801143F48013A6EB0508FF
:10050000101BD64608F2FD3873EB010002D308F148
:10051000010801E092185B41B8F1000F03DA0020F6
:100520000146BDE8F08D00204FF4801506460746D1
:100530000EE0B2EB040C73EB010C04D3121B064368
:1005400063EB01032F436D084FEA300092185B41C3
:1005500050EA050CEDD152EA030012D082EA040001
:1005600083EA0105284303D100224FF0004308E04D
:10057000101B8B4102D20122002302E06FF0010226
:1005800053101AEB060047EB085110EB0A0041EB41
:100590000B01BDE8F04D00F0F3B8C10F80EAE07048
:1005A0000844CA079623002100F0BBB80EB5C10F5E
:1005B00080EAE0700844CA07002140F233438DE826
:1005C0000E000A460B4600F0E8F803B000BD0EB579
:1005D000002240F23343CDE9002202931346114634
:1005E00000F0DBF803B000BD00F0004220F0004056
:1005F000C10DC0F3160040F400007F2901DA00208D
:100600007047962903DCC1F19601C84001E0963994
:100610008840002AF4D04042704720F00040C10DCD
:10062000C0F3160040F400007F2901DA0020704773
:10063000962903DCC1F19601C8407047963988407D
:10064000704770B5C1F30A5201F000450024C1F3B0
:10065000130140F2FF3341F480119A4201DA002085
:1006600070BD40F233439A42A2F2334203DC52425D
:1006700000F02CF800E090402C43F1D0404270BDD7
:10068000C1F30A52C1F3130140F2FF3341F4801168
:100690009A4201DA0020704740F233439A42A2F2B4
:1006A000334202DC524200F011B890407047202AD9
:1006B00004DB203A00FA02F1002070479140C2F1B9
:1006C000200320FA03F3194390407047202A04DBEB
:1006D000203A21FA02F00021704721FA02F3D040BB
:1006E000C2F120029140084319467047202A06DBD8
:1006F000CB17203A41FA02F043EAE07306E041FAF0
:1007000002F3D040C2F120029140084319467047DD
:100710000029A8BF7047401C490008BF20F0010015
:10072000704710B4B0FA80FC00FA0CF050EA0104F3
:1007300004BF10BC704749B1CCF1200421FA04F485
:1007400011FA0CF118BF012121430843A3EB0C015E
:10075000CB1D4FEA00614FEA102048BF0020BCBF0C
:1007600010BC704700EBC35010440029A4BF10BC5C
:100770007047401C490008BF20F0010010BC7047C2
:1007800010B5002B08DA401C41F1000192185B41C2
:100790001A4301D120F0010010BD2DE9FF4D934611
:1007A00011B1B1FA81F202E0B0FA80F22032924641
:1007B000FFF77DFF039A0746884640EA0B00114386
:1007C0005B46084304D13846414604B0BDE8F08D8D
:1007D000114653EA020016D0CAF140025846FFF70C
:1007E00075FF04460D464FF00106584652460399E0
:1007F000FFF75DFF084300D10026344345EAE67564
:10080000274345EA08080E984FF00005A0EB0A01BF
:100810004FEAD7200A314FEA47532A4640EA485068
:100820004FEAD82402D500200146CEE7281844EB31
:100830000151DDE90C45001904B06941BDE8F04DF6
:100840009EE70000064C074D06E0E06840F001031B
:1008500094E8070098471034AC42F6D3FFF74AFCFF
:10086000A4290008C429000810B50E4C4FF490616B
:10087000204600F069F820B14FF49061204600F066
:100880004BF8094C4FF49061204600F05DF80028C9
:1008900008BF10BD4FF490612046BDE8104000F045
:1008A0003BB80000002401400028014010B586B08C
:1008B00000224FF460200121CDE902028DF80420CE
:1008C000144C8DF805108DF81010009269462046E2
:1008D00000F052F80121204600F022F807230122FF
:1008E0000921204600F06EF8204600F0B6F82046B8
:1008F00000F03AF80028FAD1204600F0BCF8204673
:1009000000F017F80028FAD10121204600F0AAF8DB
:1009100006B010BD002401406FEA1121016070474C
:100920000029816814BF41F0010121F001018160BB
:10093000704701460020896811F0040F18BF01209C
:100940007047C06C80B2704710B40022D0F804C069
:100950000B0ACCB201680CEA040019421CBF002843
:100960000122104610BC704701460020896811F032
:10097000080F18BF0120704710B4426891F804C0F6
:1009800022F4807222F470220B6842EA0C221A438D
:10099000426082680A4B4C791A40D1E902C342EAAC
:1009A000440243EA0C031A438260C26A097C22F4BF
:1009B0007002491EC9B242EA0151C16210BC7047BF
:1009C000FDF7F1FF30B44FF0070C09290DD9C568C8
:1009D000A1F10A0404EB44040CFA04FC25EA0C0C13
:1009E000A3404CEA0303C3600AE0046901EB41053C
:1009F0000CFA05FC24EA0C0CAB404CEA030303613F
:100A00001F23072A0CD2D0F834C0521E02EB8202F8
:100A100093402CEA030391401943416330BC704773
:100A20000D2A0DD2D0F830C0D21F02EB820403FA97
:100A300004F22CEA0202A1401143016330BC70476A
:100A4000D0F82CC00D3A02EB820293402CEA03034B
:100A500091401943C16230BC7047816841F0080180
:100A6000816070470029816814BF41F4A00121F41E
:100A7000A00181607047816841F004018160704786
:100A8000FEE700002DE9F0414FF0000C284A29480C
:100A90006446654666466346142700BFB2F8008088
:100AA0005188C444B2F804800C44D18845440E44B3
:100AB000476141690029FCD15B1C642BEEDB1E48B9
:100AC0001E4F80FB0C214A11A2EBE171796080FB83
:100AD00004214A11A2EBE171396080FB05214A1122
:100AE000A2EBE171B96080FB06104111A1EBE0704F
:100AF000F86000F043FA786881B245F2555000F092
:100B00009DF9386881B246F2666000F097F9B868DE
:100B100081B247F2777000F091F9F86881B248F637
:100B2000880000F08BF9BDE8F04100F003BA000046
:100B3000F4000020180000201F85EB510801002060
:100B4000704700002DE9F0477B4E0024651E328877
:100B5000B6F80004DFF8E481290C794FDFF8E4915E
:100B6000002A7AD0A2F56E42EE3A38D0A2F588512A
:100B7000113905D0304600F0BDF904286ED1CBE024
:100B800098B1A0F56E41EE39304616D100F0B2F9B9
:100B9000042818BFBDE8F0870021404600F0D2F9D4
:100BA000042818BFBDE8F087C3E0304600F0A2F982
:100BB000042818BFBDE8F087BBE000F09BF90428CB
:100BC00008D10021304600F0BDF9042804BF40469A
:100BD00000F090F9042818BFBDE8F087A9E088B1BB
:100BE00088423CD1404600F085F9042818BFBDE892
:100BF000F0870021304600F0A5F9042818BFBDE8B1
:100C0000F08796E0F18837F81400814208BF25B2DA
:100C1000AC420ED04B4900F097F8012809D037F8C4
:100C20001400B9F8001000F0D3F8042818BFBDE88C
:100C3000F087601C84B2042CE4D30021304600F01D
:100C400081F9042818BFBDE8F087404600F052F94A
:100C5000042818BFBDE8F0876BE013E065E030467C
:100C600000F048F9042808D10021304600F06AF964
:100C7000042804BF404600F03DF9042818BFBDE831
:100C8000F08756E048B188421AD1404600F032F968
:100C9000042818BFBDE8F0874BE0304600F02AF981
:100CA000042808D10021304600F04CF9042804BF84
:100CB000404600F01FF9042818BFBDE8F08738E06F
:100CC000B6F8061437F81400814208BF25B2AC42CA
:100CD0000ED01C4900F038F8012809D037F814006C
:100CE000B9F8001000F074F8042818BFBDE8F087C8
:100CF000601C84B2042CE3D30021404600F022F9AA
:100D0000042818BFBDE8F087304600F0F3F8042847
:100D100018BFBDE8F0870CE00021304600F012F962
:100D2000042804BF404600F0E5F8042818BFBDE8D9
:100D3000F0870420BDE8F0870000010800040108E6
:100D4000300000200000002070B41F4A002301255D
:100D50001488B2F800C42E4634B1BCF1000F0FBFA6
:100D60003346AB2070BC704702EB832CBCF1004FC4
:100D7000164A02EB832238BFB2F1004F0AD30CF1BE
:100D8000020C62451DD91388834216D0121F62459A
:100D9000F9D816E00124ACEB02035B1E4FEAE37CBA
:100DA00003EB9C73A6EBA303A3420ADDB2F800C0D9
:100DB00084451CBF121F641CF6D132F8020C0025BA
:100DC0000880284670BC704700000108FE03010837
:100DD00070B5184A0E46054611880020B2F8003456
:100DE00001244EF6EE6CABB100291CBFAB2070BDE8
:100DF000634500D12046104902EB802401EB80219D
:100E00008C4205D22068401C07D0241DA142F9D88D
:100E1000802070BD6145EED0ECE73146204600F001
:100E200091F8042818BF70BD2946A01CBDE8704089
:100E300000F088B800000108FE0301082DE9F04722
:100E400080460D46FFF7C4FF802818BFBDE8F08735
:100E5000244E002437463188B6F800242248002961
:100E600008BF064605D0002A0EBF0746AB20BDE8E6
:100E7000F0874EF6EE61304600F064F8042818BFA3
:100E8000BDE8F08729464046FFF7A2FF042806BFC9
:100E9000164DDFF85C90BDE8F08700BF35F8140010
:100EA00040450ED01249FFF74FFF012809D035F811
:100EB0001400B9F80010FFF78BFF042818BFBDE835
:100EC000F087601C84B2042CE8D3384600F012F896
:100ED000042818BFBDE8F08700213046BDE8F04780
:100EE00000F030B8000001080004010830000020C4
:100EF0000000002030B505464FF4302000F04AF8DD
:100F0000042818BF30BD0A4C206940F0020020615F
:100F10006561206940F0400020614FF4302000F00E
:100F200039F8216941F6FD721140216130BD0000A0
:100F3000002002400248016941F0800101617047D0
:100F40000020024070B505460E464FF4005000F0F8
:100F500021F8042818BF70BD074C206940F001003B
:100F600020612E804FF4005000F014F8216941F602
:100F7000FE721140216170BD002002400348024909
:100F800041600349416070472301674500200240EA
:100F9000AB89EFCD174A01460420D36813F0010F47
:100FA00008D0A9B1D368042013F0010F18BF0120A5
:100FB0001BD10FE0D36813F0040F18BF022004D137
:100FC000D26812F0100F18BF0320002918BF704715
:100FD00005207047D36813F0040F18BF022004D116
:100FE000D36813F0100F18BF0320491E0128D8D072
:100FF000EBE7000000200240F8B51025ADF80050E6
:10100000344F8DF8035003248DF80240694638466A
:1010100000F064F82026ADF800606946384600F01C
:101020005DF8ADF800602C4E8DF803508DF802404D
:101030006946304600F052F80225ADF80050002015
:101040008DF803008DF802406946304600F046F8FE
:101050002802ADF800008DF8025018208DF803002A
:101060006946384600F03AF84FF48160ADF8000068
:1010700004208DF803006946384600F02FF8C020A0
:10108000ADF800008DF802401C258DF8035069462C
:10109000304600F023F8A002ADF800008DF80240C1
:1010A0008DF803506946304600F018F801214805D4
:1010B00000F07CFC00214FF4001000F077FC0121CF
:1010C000880500F073FC00214FF4800000F06EFCF6
:1010D000F8BD000000080140000C01402DE9F001BE
:1010E000CB78002213F0100F03F00F0C1CBF8B788D
:1010F00043EA0C0C0B880F26012513F0FF0F18BFD5
:10110000046819D00F8805FA02F31F409F420FD1DF
:10111000970006FA07F824EA08040CFA07F73C439C
:10112000CF78282F08BF436102D0482F08BF036142
:10113000521C082AE6D304600A88FF2A87BF446845
:101140000022BDE8F001704702F108030F8805FA9C
:1011500003F31F409F420FD1970006FA07F824EAD5
:1011600008040CFA07F73C43CF78282F08BF4361E7
:10117000CF78482F08BF0361521C082AE4D344608B
:10118000BDE8F001704700002DE9F05F834E307834
:101190000024002818BF34707078814FDFF804B243
:1011A00007F1420800286BD0747007F121054FF059
:1011B000010985F800906C70AC70EC707B482C7164
:1011C000DFF8E4A16C7151460068FFF72BF8FFF7D8
:1011D00024FAA871764851460068FFF723F8FFF714
:1011E0001CFAE8712C7273486C72AC72514600683C
:1011F000FFF718F8FFF711FAE8726F4851460068D8
:10120000FFF710F8FFF709FA28736C73AC73EC73EF
:101210002C746C74AC74EC741E202875B420687542
:10122000AC75EC75042028760220687685F81A9053
:101230000320E876614851460068FEF7F3FFFFF7A8
:10124000ECF928776C77AC77EC775DA085F82040D7
:101250000168C7F842108088A7F8460087F8484020
:101260002122294608F10600FEF75CFF2720C6F878
:1012700008803071012240F22771584600F083FE49
:10128000B07800287ED0B4704F48504D2346B0F956
:101290000000C11700EB5161802000EBE1112970C3
:1012A0004B496C70AC70B1F90010CA1701EB526178
:1012B00000EBE111E97047492C716C71B1F9001034
:1012C000CA1701EB526100EBE110A8714248434A92
:1012D000C16801F5FA7182FB0121CA10A2EBE1712C
:1012E000E971416801F6F1623D49C1FB0232131117
:1012F000A3EBE2722A720268234602F6F162C1FB96
:1013000002321311A3EBE2726A728068224600F681
:10131000F160C1FB00200211A2EBE070A87231481D
:101320004089A0F5E052B63A2046C1FB02021011F6
:10133000A0EBE270E8722C480088FFF748F92B4ACE
:101340002B4BFFF7BBF800222A4BFFF740F8FFF7C3
:1013500097F929A128730A68C7F842208988A7F855
:1013600046107969C7F84710B969C7F84B10F96991
:10137000C7F84F1087F853001220C6F80880307164
:10138000012200E004E040F22771584600F0FBFD26
:10139000F078002818BFF470BDE8F09FC00000206E
:1013A000340100200038014000007F437400002019
:1013B0007800002060000020640000207C000020F5
:1013C000732370210D0A0000200000204801002036
:1013D0001E000020220000202401002067666666AF
:1013E00089888888F40000201C000020C3F5285C50
:1013F0008FC21540000070407373210D0A00000079
:1014000070B5164C144A21286179505404D0122921
:101410009EBF481C607170BD0020607110A10E4815
:10142000FEF792FE0125002818BF25700EA10A487C
:10143000FEF78AFE002818BF65700CA10648FEF76B
:1014400083FE002818BFA57009A10348FEF77CFEA3
:10145000002818BFE57070BD34010020C0000020D6
:10146000726573657421000063722100637321004B
:1014700063692100FEE7000002484178491C417081
:10148000704700003C00002070B5344D284600F045
:1014900090F96FF44031324C40180ED0012827D01B
:1014A000A0F5802081381DD0022818BF70BD012111
:1014B0002846BDE8704000F05CB9A07838B1012240
:1014C000D021284600F0E9F90020A07070BD00226C
:1014D000D021284600F0E1F9A078401CA0702148F6
:1014E000A06070BD21782846BDE8704000F0DDB9ED
:1014F00000224FF4C061284600F062F960780028AD
:1015000018BF194E24D0C0B2012807D100212846A7
:1015100000F0C6F80121284600F034F9314628468B
:1015200000F0C7F888B16078022803D1002128466E
:1015300000F0B6F8284600F0ADF90146A06800F8C2
:10154000011BA0606078401E607060780028DAD1CE
:101550002846BDE87040012100F0A2B800540040C8
:101560003C000020180100204000030010B5134C7F
:1015700084B0204600F0E0F80020ADF804004BF6FF
:10158000FF70ADF806004020ADF808000001ADF88E
:101590000A000001ADF80C00094800900121204626
:1015A00000F09AF86946204600F012F90122510233
:1015B000204600F005F904B010BD000000580040BE
:1015C000F049020010B5334C204600F0F2F86FF4F9
:1015D00040314118304812D0A1F58021813935D0F1
:1015E000022918BF10BD0121204600F0CBF820468B
:1015F000BDE8104000224FF4007100F0E1B8B0F9EE
:10160000040001280DD0022812D0032817D0042886
:1016100018BF10BD00222046BDE81040582100F040
:101620003CB920460022BDE81040522100F035B9F7
:1016300020460022BDE81040542100F02EB920467B
:101640000022BDE81040562100F027B9B0F904008F
:10165000124901280CD0022810D0032814D00428E5
:1016600018BF10BD49782046BDE8104000F01DB9F4
:1016700009782046BDE8104000F017B98978204667
:10168000BDE8104000F011B9C9782046BDE810400F
:1016900000F00BB9005800403C0000201100002071
:1016A0000029018814BF41F4806121F48061018028
:1016B0007047838A0022008B43EA004020F07F407D
:1016C00031EA000008BF012210467047C9438182F9
:1016D0007047C943818270470029018814BF41F0D7
:1016E000010121F0010101807047000010B5114C8B
:1016F00084B0204600F020F80020ADF804004BF63E
:10170000FF70ADF806004020ADF808000001ADF80C
:101710000A000001ADF80C0049F64040009001219C
:101720002046FFF7D9FF6946204600F051F804B083
:1017300010BD000000540040A0F1804110B5B1F58B
:10174000A8414FF0010109D1480500F02FF9BDE88B
:10175000104000214FF4001000F028B94FF4800031
:1017600000F024F9BDE8104000214FF4800000F0A3
:101770001DB90029018814BF41F4807121F48071E2
:10178000018070470029018814BF41F4007121F4E1
:1017900000710180704700220B0F21F07F4112BFC2
:1017A0001430090C18300068084218BF0122104696
:1017B0007047818A008B41EA004020F07F407047EB
:1017C000002A828814BF114322EA010181807047F8
:1017D00070B50446808886B00D4620F03F06684606
:1017E00000F004F929490298B0FBF1F189B246EA08
:1017F0000102A280228822F001022280244B2A6862
:101800009A4209D85200B0FBF2F080B2042838BFE7
:101810000420491C218424E0EB88A3F53F4CBCF153
:10182000FF0C05D102EB4202B0FBF2F080B208E0FF
:1018300002EBC20303EB0212B0FBF2F080B240F401
:1018400080400205120D08BF40F0010040F4004046
:101850004FF4967251434FF47A72B1FBF2F1491C86
:101860002184A083208840F0010020802088A9885E
:101870006A8920F00A0020F4806011430843208028
:10188000A88929890843208106B070BD40420F0015
:10189000A0860100008AC0B27047002A14BF41F040
:1018A000010101F0FE010182704701827047FEE7ED
:1018B000704770B4C37802780F244FF0E0214FF0E6
:1018C000010C03B3D1F80C3D867803F4E063C3F553
:1018D000E0631B0AC3F1040524FA03F344781E40B5
:1018E00004FA05F333430A441B0182F800340078FC
:1018F000420900F01F0001EB82010CFA00F0C1F870
:10190000000170BC704702F01F000CFA00F0520991
:1019100001EB8201C1F8800170BC7047034940F0BF
:10192000FD7040F080600860704700000CED00E042
:10193000704700000349044A31F8101052F82000A3
:10194000416170479C290008040000200349044AB3
:1019500031F8101052F82000016170479C290008EE
:1019600004000020044951F82010CA68034B33F8E2
:1019700010005040C8607047040000209C290008F7
:1019800003494A6822F4404210434860704700000F
:1019900000100240044A0029D16914BF084321EA1B
:1019A0000000D0617047000000100240044A002986
:1019B000116914BF084321EA00001061704700005C
:1019C00000100240044A0029916914BF084321EA2B
:1019D0000000906170470000001002400248416A18
:1019E00041F08071416270470010024026494B6807
:1019F000264A13F00C0318BF042B01D0082B01D08A
:101A0000026015E04A684B6802F470124FF0020C55
:101A10000CEB924213F4803F03D04B6813F4003F69
:101A200003D01B4B5A43026002E0184B5A4302603A
:101A30004A6802F0F0021309164AD35CD0F800C0DD
:101A40002CFA03F34360D1F804C00CF4E06C4FEAC5
:101A50001C2C12F80CC023FA0CFCC0F808C0D1F8FA
:101A600004C00CF4605C4FEADC2C12F80C2023FA62
:101A700002F2C2604968084B01F44041890B595C8D
:101A8000B2FBF1F1016170470010024000127A00D0
:101A900000093D00D0000020CC00002000224309B6
:101AA0000949012B08BF096803D0022B0CBF096A42
:101AB000496A00F01F00012303FA00F0084218BF32
:101AC00001221046704700000010024003494A6896
:101AD00022F4E062104348607047000000100240AA
:101AE0007047704770470000184810B58188491C3E
:101AF00009B28180042904DD00218180FFF736FDD1
:101B000011E0144C12492046FFF7E0FD124920462F
:101B1000FFF7DFFD012251022046FFF751FE0121B0
:101B20002046FFF726FE0D480178491C01700C483D
:101B3000FEF707FF0B490A88904234BF501E501C25
:101B40000880BDE8104000F079B900003C0000209A
:101B500000070010005800400B4700031A00002047
:101B6000002401401C0000202F48016841F00101C1
:101B7000016041682D4A11404160016821F4102143
:101B800021F080710160016821F4802101604268C8
:101B90004FF41F0122F4FE024260816002680021BE
:101BA00042F4803202600268491C12F4003F02D104
:101BB000B1F5A06FF7D1016811F4003F2FD01C4997
:101BC0000A6842F010020A600A6822F003020A6002
:101BD0000A6842F001020A60416841604168416060
:101BE00041684160416821F47C114160416841F4E1
:101BF000F8114160016841F080710160016811F0E5
:101C0000007FFBD0416821F003014160416841F051
:101C100002014160416801F00C010829FAD105492F
:101C20004FF0006008607047001002400000FFF8AD
:101C30000020024008ED00E0704770477047000048
:101C400030B587B04FF6FF70ADF814000520ADF841
:101C500010000024134DADF81640ADF8124004A951
:101C6000284600F09DF8ADF800400120ADF80200D4
:101C700040F2DC50ADF80600ADF808406946284651
:101C800000F044F80021284600F082F801220221E9
:101C9000284600F033F80121284600F024F807B068
:101CA00030BD00000004004010B50B4C022120465E
:101CB00000F016F80948007800281CBF0220FFF742
:101CC00051FE204600F018F800F2DC5081B22046A8
:101CD000BDE8104000F062B8000400401800002089
:101CE000C943018270470029018814BF41F00101F6
:101CF00021F0010101807047808E7047002A82899F
:101D000014BF114322EA01018181704770B4028C33
:101D100022F001020284028C8388B0F818C00D887A
:101D20000C892CF0730C22F002024E8845EA0C0C50
:101D300022433243A0F18045B5F596351CBFA0F192
:101D40008044B4F59A340DD0A0F18044B4F5A034A9
:101D50001FBFA0F18044B4F5A234A0F18044B4F5D3
:101D6000A4340DD14C8922F0080222438C8822F041
:101D7000040222438D8923F44073CC892B432343EF
:101D80008380A0F818C0C9888186028470BC70471F
:101D9000028B22F00802114301837047818670474D
:101DA00010B40288234BDFF890C0984218BF6045FA
:101DB00011D0B0F1804F1CBFA0F18044B4F5806415
:101DC00009D0A0F18044B4F500641CBFA0F18044A8
:101DD000B4F5406403D14C8822F070022243A0F194
:101DE0008044B4F580541CBFA0F18044B4F5A054E5
:101DF00003D0CC8822F44072224302808A88984221
:101E000082850A88028518BF60450DD0A0F1804206
:101E1000B2F5A0321FBFA0F18042B2F5A232A0F10C
:101E20008042B2F5A43201D1097A01860121818272
:101E300010BC7047002C0140003401400448416947
:101E4000002908BF70474169491E41617047000081
:101E50001800002070B5174D40F22771284600F099
:101E60006BF8B8B11448154C0068E178415C28461D
:101E700000F024F9E0781249401CC0B2E070097803
:101E8000884207D1002240F22771284600F07BF8F3
:101E90000020E07040F22551284600F04DF800285F
:101EA00008BF70BD284600F005F9BDE87040C0B21B
:101EB000FFF7A6BA00380140C80000203C0000200F
:101EC000C400002010B5044800F0F4F8BDE810404C
:101ED000C0B200F071BC00000044004000298189BC
:101EE00014BF41F4005121F400518181704700007A
:101EF00010B584B04FF4164000900020ADF80400F7
:101F0000ADF80600ADF80800ADF80C000C20094C47
:101F1000ADF80A006946204600F04EF8012240F272
:101F20002551204600F02FF801212046FFF7D6FF6B
:101F300004B010BD0038014010B401F01F020124AC
:101F40000023C1F3421C04FA02F2BCF1010F04BFEA
:101F5000B0F80CC00CEA020208D0BCF1020F0CBFB2
:101F6000B0F810C0B0F814C00CEA0202090A0088E8
:101F700004FA01F1002A00EA01001CBF0028012335
:101F8000184610BC7047C1F3421301F01F014FF017
:101F9000010C0CFA01F1012B08BF0C3003D0022B0D
:101FA0000CBF10301430002A026814BF114322EA1B
:101FB000010101607047000030B50446008A85B019
:101FC0000D464CF6FF710840E98808432082A0893D
:101FD0004EF6F3110840A9882A8911436A891043F3
:101FE0000843A081A08A4FF6FF410840A989084311
:101FF000A0826846FFF7FAFCA4F18040B0F59C305F
:102000000CBF03980298A18911F4004F00EBC001A6
:1020100001EB0010296814BF49008900B0FBF1F002
:10202000114A6FF0180CA2FB0031490909010B0994
:1020300003FB0CF3B4F80CC000EB830032231CF458
:10204000004F14BF03EBC00003EB0010A2FB002005
:102050004FEA501014BF00F0070000F00F000843D3
:10206000208105B030BD00001F85EB5110B584B054
:102070004FF4164000900020ADF80400ADF80600C3
:10208000ADF80800ADF80C000420094CADF80A00CA
:1020900069462046FFF790FF012240F22551204675
:1020A000FFF771FF01212046FFF718FF04B010BDB4
:1020B000004400408088C0F308007047C1F3080165
:1020C000818070477047FEE702E008C8121F08C110
:1020D000002AFAD170477047002001E001C1121FA9
:1020E000002AFBD1704700002DE9F04702462E4838
:1020F0000027DFF8B880C0E907872D4B476253F807
:102100002130C2EBC30600F12C0202EB810542F83C
:102110002160284990F800C04A422B69BCF1020FA7
:1021200018BF002408D1F4189442C8BF44F62064B4
:1021300002DCA142C8BF0C462C61AB68F31A4360B5
:102140008B42B8BF416002DB9A42B8BF4260406830
:10215000FEF723FA3946FEF765F881462046FEF77A
:102160001CFA3946FEF75EF804463046FEF715FACB
:102170004146FEF757F82146FDF7FCFF4946FDF7BB
:10218000F9FFFEF731FA42F21071A8618842C8BF28
:1021900042F210700849A8618842D8BF0846AE6074
:1021A000A861BDE8F08700005800002023DBF93D5E
:1021B00024010020E0B1FFFFF0D8FFFF82B0FFF75D
:1021C000D3FC4FF48060FFF781FC4FF48040FFF7B1
:1021D000D7FB01210D20FFF7F5FB01210220FFF7BE
:1021E000D9FB01214802FFF7EDFB01214805FFF76C
:1021F000D1FB01218805FFF7CDFB01218803FFF703
:10220000E1FB01214804FFF7C5FB4FF44070FFF7E5
:1022100085FB1F208DF8000001248DF801408DF80A
:1022200002408DF803406846FFF743FB21208DF8FC
:1022300000008DF801408DF802408DF8034068469B
:10224000FFF737FB1D208DF8000003258DF80150A6
:102250008DF802408DF803406846FFF72AFB2520E1
:102260008DF800008DF8015002208DF802008DF8E5
:1022700003406846FFF71DFB26208DF800008DF80F
:1022800001508DF802508DF803406846FFF711FBAE
:102290004FF0E024202084F8230DFEF7ADFEFEF77A
:1022A0006DFEFEF74FFCFEF745FE714D45F25550B1
:1022B000291DFEF749FD42F63336002818BF6E602F
:1022C0006B4946F26660FEF73FFD002818BF2E609E
:1022D00005F1080147F27770FEF736FD002818BFB8
:1022E000AE6005F10C0148F68800FEF72DFD0028D0
:1022F0001CBF42F26C00E8605E484FF47A710068DF
:10230000B0FBF1F0B0F1807F4ED220F07F40401E54
:102310006061F02084F8230D4FF0000BC4F818B072
:1023200007202061FFF7E4FDFFF7A0FEFFF71EF98D
:10233000FEF7BCFAFFF784FCFFF7D8F97B20FFF724
:10234000ADFBDFF834914D4C01282ED00120FFF772
:10235000FDFA0020FFF7FAFA40F2AE760125608818
:102360000428FCD9A4F802B0062243491D2000F03D
:1023700099FAB9F80000A38940BAB9F80210B9F87F
:102380000420C01AE080E08949BA081A2081208A16
:1023900052BA101A608100F077F8FEF7F5FEA088B7
:1023A000864288BF2570DAE7FEE7FFF717FB40F6A5
:1023B000B830606160690028FCD1314EF18842F28A
:1023C000FC1081423CBFB188814212D20120FFF74C
:1023D000BDFA42F22830B1888142FCD36420254600
:1023E000606168690028FCD10120FFF7A3FAFEF7BD
:1023F00049FB00263746B04635464FF0140A062200
:102400001D491D2000F04EFA99F8000099F80110BE
:10241000000200B20843064499F8020099F803103C
:10242000000200B20843074499F8040099F8051027
:10243000000200B208438044C4F814A06069002878
:10244000FCD16D1C642DDADB0E4880FB06214A119D
:10245000A2EBE171A18180FB07214A11A2EBE1719E
:10246000E18180FB08104111A1EBE070208270E750
:1024700008010020E00000201801002018000020C2
:10248000F40000201F85EB512DE9F0476548C08816
:102490006549C968401AFEF789F80022634BFEF7C8
:1024A0000DF8FEF7CEF8624D5E49E8605E48098897
:1024B0004068401A68605B4840885B490968401A78
:1024C00028605848808858498968401AA860594847
:1024D0000021B0F90000FFF707FE57480121B0F9CD
:1024E0000000FFF701FE55484E49B0F90000898908
:1024F000534C544FA760A96804F1540500EB8106C2
:102500002E606868301AFEF748F82169FDF78AFEE8
:102510008046A868FEF741F8E168FDF783FE814632
:102520003046FEF73AF83946FDF77CFE4946FDF79E
:1025300021FE4146FDF770FEFEF756F86E60E8603A
:102540003848C088FEF743F83F4E404F32463B467E
:10255000FDF743FF05468A466069FEF727F8DFF876
:10256000F080DFF8F09042464B46FDF736FF5346C9
:102570002A46FDF78DFEFEF764F80546606129489E
:102580004089FEF724F832463B46FDF726FF064613
:102590000F46A069FEF70AF842464B46FDF71DFFBD
:1025A0003B463246FDF774FEFEF74BF8A06102464B
:1025B000237800202849012742F2283C42F2FC16E9
:1025C0008BB143F2D408012B19D0022B18BFBDE800
:1025D000F08700F043F8A0694045BCBF6069B04295
:1025E0000ADBBDE8F0870870C870487088706245E3
:1025F000CCBFAE42BDE8F0872770BDE8F0871E2350
:102600000B70CB704B708B709445C4BF2070BDE8CD
:10261000F0879045BDBFB54202202070BDE8F0872D
:10262000BDE8F087F4000020080100200000F83F1A
:10263000240100201E000020200000202200002095
:1026400058000020CDCC4C3D989999999999B93F63
:10265000CDCCCCCCCCCCEC3F110000202DE9F0034C
:102660005148DFF84881524BC56808F12800D8F876
:102670001870C668E91B881983FB00108110A1EB54
:10268000E070A8F12C014B4A886292F800C08445A2
:1026900006DCA0EB0C04142CC8BF0CF1140005E000
:1026A000ACEB0004142CC8BFACF114004FF01E0CAE
:1026B000FF2488621E28B8BF82F800C003DBFF2811
:1026C000CCBF14701070E819304483FB0070871081
:1026D000A7EBE0708862D778874207DCA0EB070998
:1026E000B9F1140FC8BF07F1140006E0A7EB000909
:1026F000B9F1140FC8BFA7F1140088621E28B8BF33
:1027000082F803C003DBFF28CCBFD470D070D8F8A8
:102710001C80A5EB0800801B83FB00708710A7EBD3
:10272000E07088625778874207DCA0EB0709B9F1AF
:10273000140FC8BF07F1140006E0A7EB0009B9F1B8
:10274000140FC8BFA7F1140088621E28B8BF82F812
:1027500001C003DBFF28CCBF5470507005EB0800AC
:10276000801B83FB00308310A3EBE07088629378BA
:10277000834205DCC51A142DC8BF03F1140004E020
:102780001D1A142DC8BFA3F1140088621E28BEBFF5
:1027900082F802C0BDE8F0037047FF28CCBF9470F8
:1027A0009070BDE8F00370472401002084000020F1
:1027B000ABAAAA2A1100002000233349FF2801BF39
:1027C0004A78FF2A0B708B7008BF7047F0B42E4A0E
:1027D00091F800C094780832BCF1000F1DD0CD787C
:1027E000AC451FD96FEA040C0CF0FF0C81F802C055
:1027F000BCF1FF0F04BF4FF0FE0C81F802C00CF0DB
:10280000FF0C60453CD1214C92F800C06578E67819
:102810002779BCF11F0F15D10EE01F280CBF05232F
:102820000423CB7002F80C0022188A700CF101020C
:102830000A704870F0BC7047154C2570154C267016
:10284000154C27700CF0F004102C19D10CF00F046B
:102850000A2C15D2DFF844C08CF8015092788CF81D
:1028600000208CF803600E4D8CF80270BCF800203C
:1028700025F81420621CD4B2BCF8022025F81420DC
:102880000B708B70D5E7000048000020500000203E
:102890003900002010000020380000204C000020EB
:1028A000F40000202DE9F047364F80460E461546CD
:1028B0004FF400313846FEF76EFF0028F8D10121B1
:1028C0003846FEF756FF304C38462146FEF7F1FEFB
:1028D0000028F9D00022D0213846FEF7DEFFDFF8CD
:1028E000AC9038464946FEF7E4FE0028F9D0414650
:1028F0003846FEF7DAFFDFF8988038464146FEF7A3
:10290000D8FE0028F9D001213846FEF732FF2146D3
:102910003846FEF7CEFE0028F9D00122D0213C46F1
:102920003846FEF7BAFF1B4F20463946FEF7C1FE78
:102930000028F9D0002D18BF174F1CD0012D07D14A
:1029400000212046FEF7ACFE01212046FEF71AFFCB
:1029500039462046FEF7ADFE58B1022D03D10021C5
:102960002046FEF79DFE2046FEF794FF06F8010B79
:102970006D1E002DE2D12046BDE8F0470121FEF793
:102980008FBE0000005400400100030082000700D9
:102990008400070002000300400003001000200034
:1029A00020000000C429000800000020F4000000FE
:1029B000C8200008B82A0008F4000020AC04000079
:1029C000D820000800000000000801400008014075
:1029D000000C0140000000000000000000000000AA
:1029E00010270000000000000000000000000000B0
:1029F0000000000055556666777788880000000063
:102A00001B080000000000000000000000000000A3
:102A100000000000000000000000000000000000B6
:102A200000000000000000000000000000000000A6
:102A30000000000000000000000000000000000096
:102A40000000000000000000DB170000DB170000A2
:102A50000000000000000000000000000000000076
:102A60000000000000000000000000000000000066
:102A7000C076000000000000000000000000000020
:102A80000000000000000000000000000000000046
:102A9000020406080000000001020304010203040E
:102AA0000607080900512502000000000000000090
:082AB0000102030406070809F6
:04000005080000ED02
:00000001FF
