:020000040800F2
:10000000C805002001010008411A00080516000873
:100010003F1A0008090B00085722000800000000E2
:10002000000000000000000000000000751C000837
:10003000C90B000800000000C11A0008791C000864
:100040001B0100081B0100081B010008731C0008AD
:100050001B0100081B0100081B0100081B01000810
:100060001B0100081B0100081B0100081B01000800
:100070001B0100081B0100081B0100081B010008F0
:100080001B0100081B010008F10800081B01000803
:10009000552200081B0100081B0100081B01000875
:1000A0001B0100081B010008CB1D0008C91D00082A
:1000B000CD1D0008391E00081B0100081916000894
:1000C00009160008551700081B0100081B0100084D
:1000D0001B010008E51F0008552000081B0100084F
:1000E0001B010008711C00081B010008DFF80CD080
:1000F00000F0ECFB0048004739230008C805002049
:100100000648804706480047FEE7FEE7FEE7FEE7B1
:10011000FEE7FEE7FEE7FEE7FEE7FEE7F91C000864
:10012000ED00000840EA01039B0703D009E008C97D
:10013000121F08C0042AFAD203E011F8013B00F8AC
:10014000013B521EF9D2704730B50EE003460A4615
:1001500001E05B1C521C1C781578AC4201D1002CCC
:10016000F7D115F0FF0F04D0401C0278002AEDD122
:10017000002030BDF0B480EA0102D20F4300B3EB9F
:10018000410F02D20346084619464B0042D0C30D28
:10019000DDB2C1F3C7542C1B202C35DAC1F3160194
:1001A00041F4000502B16D42C4F1200605FA06F1E2
:1001B00025412844B3EBD05F23D0C2B1012CA0EB82
:1001C000C35009DCF0BC4FF0004202EAC35200F514
:1001D0000000DBB200F0EABA400000F1807000EBF2
:1001E000C350A0F1807040EAD170490009E049088D
:1001F00041EAC071A0EBC35000F50000400800EBDD
:10020000C350F0BC00F0C9BA5142012303EB4101D5
:10021000801AF6E7F0BC704781F00041AAE780F051
:100220000040A7E780EA010210B502F0004240005A
:1002300026D04B0023D04FEA106101EB1361C0F3CD
:100240005600C3F3560340F4000043F40003A0FB40
:100250000330A1F17F014FEA00401C0401D000F1FE
:10026000010050EA134001D44000491EC3B20C06FD
:1002700004EBD010401C4008802B02D003E000208B
:1002800010BD20F00100002900DA0020104310BD4D
:1002900080EA010202F0004330B430F0004221F065
:1002A000004015D0A0B1C0F3C755C2F3C754C2F384
:1002B0001601C0F31600651B41F4000140F4000074
:1002C0007D35814201D36D1C00E04900002D02DA2A
:1002D00030BC002070474FF400020024814201D35B
:1002E000091A144352084FEA4101F7D151B1814232
:1002F00002D14FF0004105E002D24FF0010101E0D0
:100300006FF0010104EBC55030BC184400F045BA51
:100310002DE9FE4F074681EA0300C00F0E4601900B
:1003200021F0004123F00044B81AA14105D238461B
:10033000314617461E460B46024623F00040104346
:1003400004D13846314603B0BDE8F08F350DC5F312
:100350000A00C3F30A510290401A0090402867DA5D
:10036000C3F3130040F4801B0198924620B1002390
:10037000D2EB030A63EB0B0B00985946C0F1400225
:10038000504600F0D9F980460C4650465946009A2E
:1003900000F0F1F9C0197141EF1785EA11533B43A1
:1003A0003FD0019A4AB3009A012A11DC0022801A38
:1003B00061EB05514FF0004303EA0555CDE90025F7
:1003C000801841F580114246234600F02BFABAE727
:1003D0002E050025401B61EB0601401941F58012F6
:1003E000001852412818A6F5001343EB020140EA19
:1003F000D47018EB0808644113E064084FEA380829
:100400004FF0000244EAC0744FEA0553801A61EBD2
:100410000301801841F5801149084FEA3000801827
:1004200059414246234603B0BDE8F04F00F0EDB914
:100430000198012240000023D0EB020263EBE0733D
:1004400001984FEAE074381A66EB0401EBE783F099
:1004500000435DE781F000415AE72DE9FE4F81EA54
:10046000030421F0004504F0004423F000414FF064
:10047000000A009450EA050302D052EA010304D1B5
:100480000020014603B0BDE8F08FC1F30A53C5F365
:100490000A542344A3F2F3330193A0FB02B3C5F340
:1004A000130545F4801CC1F3130141F480180CFBC3
:1004B000023300FB083E810A930A41EA8C5143EA69
:1004C0008853A1FB03474FEA9C2505FB03734FEAC2
:1004D000982601FB06373D05260545EA1435BBEB9A
:1004E00006016EEB0503850E920E45EA8C1542EA75
:1004F0008812A5FB0206261E67EB00070C0D44EAD6
:100500000334A61947EB1350C1F313044FF0000353
:100510001946E5FB02014FEA033545EA1455019BF4
:100520004FEA0432009CA3F10C03CDE900A445EA94
:10053000060502932B4600F075F9A3E72DE9F04D6F
:1005400081EA030404F0004B21F0004714464FF009
:10055000000A23F0004150EA070220D054EA0102C9
:100560001DD0C1F30A550246C1F31300C7F30A5662
:10057000C7F3130340F4801143F48013A6EB05087E
:10058000101BD64608F2FD3873EB010002D308F1C8
:10059000010801E092185B41B8F1000F03DA002076
:1005A0000146BDE8F08D00204FF480150646074651
:1005B0000EE0B2EB040C73EB010C04D3121B0643E8
:1005C00063EB01032F436D084FEA300092185B4143
:1005D00050EA050CEDD152EA030012D082EA040081
:1005E00083EA0105284303D100224FF0004308E0CD
:1005F000101B8B4102D20122002302E06FF00102A6
:1006000053101AEB060047EB085110EB0A0041EBC0
:100610000B01BDE8F04D00F0F8B8C10F80EAE070C2
:100620000844CA079623002100F0C0B89623002290
:10063000114600F0BBB80EB5C10F80EAE070084467
:10064000CA07002140F233438DE80E000A460B46EC
:1006500000F0E8F803B000BD0EB5002240F23343CD
:10066000CDE9002202931346114600F0DBF803B0F7
:1006700000BD00F0004220F00040C10DC0F31600A4
:1006800040F400007F2901DA00207047962903DC3E
:10069000C1F19601C84001E096398840002AF4D0A3
:1006A0004042704720F00040C10DC0F3160040F4F6
:1006B00000007F2901DA00207047962903DCC1F190
:1006C0009601C840704796398840704770B5C1F3AD
:1006D0000A5201F000450024C1F3130140F2FF3338
:1006E00041F480119A4201DA002070BD40F2334398
:1006F0009A42A2F2334203DC524200F02CF800E0AE
:1007000090402C43F1D0404270BDC1F30A52C1F376
:10071000130140F2FF3341F480119A4201DA0020C4
:10072000704740F233439A42A2F2334202DC524213
:1007300000F011B890407047202A04DB203A00FAFC
:1007400002F1002070479140C2F1200320FA03F328
:10075000194390407047202A04DB203A21FA02F026
:100760000021704721FA02F3D040C2F120029140EB
:10077000084319467047202A06DBCB17203A41FA76
:1007800002F043EAE07306E041FA02F3D040C2F11E
:10079000200291400843194670470029A8BF7047BE
:1007A000401C490008BF20F00100704710B4B0FAA7
:1007B00080FC00FA0CF050EA010404BF10BC704742
:1007C00049B1CCF1200421FA04F411FA0CF118BF5C
:1007D000012121430843A3EB0C01CB1D4FEA00612B
:1007E0004FEA102048BF0020BCBF10BC704700EB90
:1007F000C35010440029A4BF10BC7047401C4900DE
:1008000008BF20F0010010BC704710B5002B08DABB
:10081000401C41F1000192185B411A4301D120F0C4
:10082000010010BD2DE9FF4D934611B1B1FA81F2DF
:1008300002E0B0FA80F220329246FFF77DFF039A81
:100840000746884640EA0B0011435B46084304D143
:100850003846414604B0BDE8F08D114653EA020027
:1008600016D0CAF140025846FFF775FF04460D4600
:100870004FF00106584652460399FFF75DFF0843C3
:1008800000D10026344345EAE675274345EA0808C7
:100890000E984FF00005A0EB0A014FEAD7200A316D
:1008A0004FEA47532A4640EA48504FEAD82402D537
:1008B00000200146CEE7281844EB0151DDE90C4544
:1008C000001904B06941BDE8F04D9EE7064C074DA4
:1008D00006E0E06840F0010394E807009847103410
:1008E000AC42F6D3FFF706FCA82C0008C82C000881
:1008F00010B50E4C4FF49061204600F069F820B11D
:100900004FF49061204600F04BF8094C4FF4906191
:10091000204600F05DF8002808BF10BD4FF490613C
:100920002046BDE8104000F03BB800000024014024
:100930000028014010B586B000224FF4602001214C
:10094000CDE902028DF80420144C8DF805108DF8C5
:10095000101000926946204600F052F8012120460E
:1009600000F022F8072301220921204600F06EF84A
:10097000204600F0B6F8204600F03AF80028FAD1F8
:10098000204600F0BCF8204600F017F80028FAD105
:100990000121204600F0AAF806B010BD0024014055
:1009A0006FEA1121016070470029816814BF41F08E
:1009B000010121F001018160704701460020896832
:1009C00011F0040F18BF01207047C06C80B270474F
:1009D00010B40022D0F804C00B0ACCB201680CEAB3
:1009E000040019421CBF00280122104610BC7047A9
:1009F00001460020896811F0080F18BF01207047D8
:100A000010B4426891F804C022F4807222F470227B
:100A10000B6842EA0C221A43426082680A4B4C7906
:100A20001A40D1E902C342EA440243EA0C031A43E2
:100A30008260C26A097C22F47002491EC9B242EA8D
:100A40000151C16210BC7047FDF7F1FF30B44FF0A7
:100A5000070C09290DD9C568A1F10A0404EB440467
:100A60000CFA04FC25EA0C0CA3404CEA0303C36017
:100A70000AE0046901EB41050CFA05FC24EA0C0CC0
:100A8000AB404CEA030303611F23072A0CD2D0F8C2
:100A900034C0521E02EB820293402CEA03039140C1
:100AA0001943416330BC70470D2A0DD2D0F830C0D5
:100AB000D21F02EB820403FA04F22CEA0202A140E4
:100AC0001143016330BC7047D0F82CC00D3A02EBE3
:100AD000820293402CEA030391401943C16230BC67
:100AE0007047816841F00801816070470029816882
:100AF00014BF41F4A00121F4A00181607047816816
:100B000041F0040181607047FEE700002DE9F041EB
:100B10004FF0000C284A29486446654666466346FD
:100B2000142700BFB2F800805188C444B2F8048092
:100B30000C44D18845440E44476141690029FCD1E9
:100B40005B1C642BEEDB1E481E4F80FB0C214A1100
:100B5000A2EBE171796080FB04214A11A2EBE17103
:100B6000396080FB05214A11A2EBE171B96080FB7D
:100B700006104111A1EBE070F86000F043FA7868CC
:100B800081B245F2555000F09DF9386881B246F2C5
:100B9000666000F097F9B86881B247F2777000F0AC
:100BA00091F9F86881B248F6880000F08BF9BDE849
:100BB000F04100F003BA00000401002018000020FA
:100BC0001F85EB5118010020704700002DE9F04708
:100BD0007B4E0024651E3288B6F80004DFF8E481FD
:100BE000290C794FDFF8E491002A7AD0A2F56E4201
:100BF000EE3A38D0A2F58851113905D0304600F0D0
:100C0000BDF904286ED1CBE098B1A0F56E41EE3964
:100C1000304616D100F0B2F9042818BFBDE8F087BD
:100C20000021404600F0D2F9042818BFBDE8F08743
:100C3000C3E0304600F0A2F9042818BFBDE8F087F1
:100C4000BBE000F09BF9042808D10021304600F0F9
:100C5000BDF9042804BF404600F090F9042818BFED
:100C6000BDE8F087A9E088B188423CD1404600F059
:100C700085F9042818BFBDE8F0870021304600F050
:100C8000A5F9042818BFBDE8F08796E0F18837F889
:100C90001400814208BF25B2AC420ED04B4900F08F
:100CA00097F8012809D037F81400B9F8001000F0BF
:100CB000D3F8042818BFBDE8F087601C84B20C2C60
:100CC000E4D30021304600F081F9042818BFBDE8C4
:100CD000F087404600F052F9042818BFBDE8F087BD
:100CE0006BE013E065E0304600F048F9042808D1D5
:100CF0000021304600F06AF9042804BF404600F0A5
:100D00003DF9042818BFBDE8F08756E048B1884295
:100D10001AD1404600F032F9042818BFBDE8F08728
:100D20004BE0304600F02AF9042808D10021304673
:100D300000F04CF9042804BF404600F01FF90428D5
:100D400018BFBDE8F08738E0B6F8061437F814008D
:100D5000814208BF25B2AC420ED01C4900F038F8E1
:100D6000012809D037F81400B9F8001000F074F821
:100D7000042818BFBDE8F087601C84B20C2CE3D3B4
:100D80000021404600F022F9042818BFBDE8F08792
:100D9000304600F0F3F8042818BFBDE8F0870CE0F7
:100DA0000021304600F012F9042804BF404600F04C
:100DB000E5F8042818BFBDE8F0870420BDE8F087F7
:100DC000000001080004010830000020000000209D
:100DD00070B41F4A002301251488B2F800C42E46BF
:100DE00034B1BCF1000F0FBF3346AB2070BC70476D
:100DF00002EB832CBCF1004F164A02EB832238BF72
:100E0000B2F1004F0AD30CF1020C62451DD91388D0
:100E1000834216D0121F6245F9D816E00124ACEBCC
:100E200002035B1E4FEAE37C03EB9C73A6EBA30378
:100E3000A3420ADDB2F800C084451CBF121F641C27
:100E4000F6D132F8020C00250880284670BC7047A5
:100E500000000108FE03010870B5184A0E46054659
:100E600011880020B2F8003401244EF6EE6CABB1CC
:100E700000291CBFAB2070BD634500D1204610493E
:100E800002EB802401EB80218C4205D22068401CBB
:100E900007D0241DA142F9D8802070BD6145EED055
:100EA000ECE73146204600F091F8042818BF70BDE9
:100EB0002946A01CBDE8704000F088B80000010879
:100EC000FE0301082DE9F04780460D46FFF7C4FFF9
:100ED000802818BFBDE8F087244E002437463188AB
:100EE000B6F800242248002908BF064605D0002A8B
:100EF0000EBF0746AB20BDE8F0874EF6EE613046E8
:100F000000F064F8042818BFBDE8F0872946404681
:100F1000FFF7A2FF042806BF164DDFF85C90BDE87E
:100F2000F08700BF35F8140040450ED01249FFF796
:100F30004FFF012809D035F81400B9F80010FFF769
:100F40008BFF042818BFBDE8F087601C84B20C2C0E
:100F5000E8D3384600F012F8042818BFBDE8F0873F
:100F600000213046BDE8F04700F030B8000001082D
:100F700000040108300000200000002030B50546C4
:100F80004FF4302000F04AF8042818BF30BD0A4C56
:100F9000206940F0020020616561206940F0400056
:100FA00020614FF4302000F039F8216941F6FD72DC
:100FB0001140216130BD000000200240024801695B
:100FC00041F08001016170470020024070B5054684
:100FD0000E464FF4005000F021F8042818BF70BDF1
:100FE000074C206940F0010020612E804FF4005032
:100FF00000F014F8216941F6FE721140216170BDC4
:1010000000200240034802494160034941607047A3
:101010002301674500200240AB89EFCD174A014606
:101020000420D36813F0010F08D0A9B1D3680420BD
:1010300013F0010F18BF01201BD10FE0D36813F08C
:10104000040F18BF022004D1D26812F0100F18BF8D
:101050000320002918BF704705207047D36813F09C
:10106000040F18BF022004D1D36813F0100F18BF6B
:101070000320491E0128D8D0EBE7000000200240E1
:10108000F8B51025ADF80050344F8DF80350032407
:101090008DF802406946384600F064F82026ADF825
:1010A00000606946384600F05DF8ADF800602C4EEF
:1010B0008DF803508DF802406946304600F052F832
:1010C0000225ADF8005000208DF803008DF8024095
:1010D0006946304600F046F82802ADF800008DF869
:1010E000025018208DF803006946384600F03AF89F
:1010F0004FF48160ADF8000004208DF803006946CC
:10110000384600F02FF8C020ADF800008DF80240FE
:101110001C258DF803506946304600F023F8A002E4
:10112000ADF800008DF802408DF803506946304656
:1011300000F018F80121480500F000FD00214FF4EF
:10114000001000F0FBFC0121880500F0F7FC0021F5
:101150004FF4800000F0F2FCF8BD000000080140F0
:10116000000C01402DE9F001CB78002213F0100FA4
:1011700003F00F0C1CBF8B7843EA0C0C0B880F2676
:10118000012513F0FF0F18BF046819D00F8805FA66
:1011900002F31F409F420FD1970006FA07F824EA96
:1011A00008040CFA07F73C43CF78282F08BF4361A7
:1011B00002D0482F08BF0361521C082AE6D30460FE
:1011C0000A88FF2A87BF44680022BDE8F001704703
:1011D00002F108030F8805FA03F31F409F420FD165
:1011E000970006FA07F824EA08040CFA07F73C43CC
:1011F000CF78282F08BF4361CF78482F08BF0361FD
:10120000521C082AE4D34460BDE8F0017047000096
:101210002DE9F05FB64E30780025002818BF3570F4
:101220003079B44CDFF8D092DFF8D0A200285DD03E
:10123000A079FFF7FBF94946FFF72AF8CAF8000042
:10124000E079FFF7F3F94946FFF722F8AC49086067
:10125000207FFFF7EBF94946FFF71AF8A949086024
:10126000E07AFFF7E3F94946FFF712F8A64908606C
:10127000207BFFF7DBF94946FFF70AF8A34908602E
:10128000A348217D0170607DFFF7E6F9A14AA24BDA
:10129000FFF7E3F8FFF739FAA0490880FFF7B2FE3D
:1012A000A17949F69910FFF70DFEE17944F2444027
:1012B000FFF708FE217F43F23330FFF703FEE17AA8
:1012C00042F22220FFF7FEFD217B41F21110FFF7D1
:1012D000F9FD617D44F22130FFF7F4FD217D41F2FB
:1012E0002210FFF7EFFDFFF769FE357170788C4F24
:1012F000002807F1560872D075704FF0010B84F882
:1013000000B06570A570E570257165714946DAF821
:101310000000FEF787FFFFF7C5F9A071784849463E
:101320000068FEF77FFFFFF7BDF9E0712572764890
:101330006572A57249460068FEF774FFFFF7B2F9BF
:10134000E072724849460068FEF76CFFFFF7AAF9A1
:1013500020736573A573E573257465746C48A57473
:10136000E574007820756D480088FFF775F9694AC3
:10137000694BFFF7E3F8FFF7C8F96075A575E575E8
:10138000042020760220607684F81AB00320E076EC
:101390005C4849460068FEF745FFFFF783F9207770
:1013A0006577A577E5775FA084F820500168C7F8D6
:1013B00056108088A7F85A0087F85C50212207F160
:1013C000350108F10600FEF7ADFE2720C6F80880BB
:1013D0007071012240F22771544800F09CFEB078F1
:1013E000002808BFBDE8F09FB5705148514C2B460E
:1013F000B0F90000C11700EB5161802000EBE11152
:1014000021704D496570A570B1F90010CA1701EB44
:10141000526100EBE111E170484925716571B1F944
:101420000010CA1701EB526100EBE110A0714448B3
:10143000444AC16801F5FA7182FB0121CA10A2EB8E
:10144000E171E171416801F6F1623F49C1FB02328D
:101450001311A3EBE272227202682B4602F6F162CC
:10146000C1FB02321311A3EBE272627280682A465A
:1014700000F6F160C1FB00200211A2EBE070A07247
:1014800032484089A0F5E050B638C1FB0050011148
:10149000A1EBE070E0722E480088FFF7DDF82D4ADE
:1014A0002D4BFFF74BF800222C4BFEF7D0FFFFF738
:1014B0002CF92BA120730A68C7F856208988A7F851
:1014C0005A10B96AC7F85B10F96AC7F85F10396B30
:1014D000C7F8631087F867001220C6F8088070719B
:1014E000BDE8F05F012240F22771104800F013BE02
:1014F000D00000207901002000007F437800002008
:101500007C00002080000020880000208C0000204B
:1015100069000020AE47E17A142E26401E0000200C
:1015200044010020732370210D0A0000003801409F
:10153000220000206C010020200000202400002058
:101540003401002067666666898888880401002067
:101550001C000020C3F5285C8FC2154000007040BD
:101560007373210D0A00000070B51F4C1D4BA2794A
:10157000511CC9B29854A171E2780025012662B1CC
:10158000212998BF70BDA5712671E570BDE8704036
:101590002122591C1548FEF7C5BD212802D0232958
:1015A00038BF70BDA57112A10E48FEF7CDFD002811
:1015B00018BF267010A10B48FEF7C6FD002818BF03
:1015C00066700EA10748FEF7BFFD002818BFA67081
:1015D0000BA10448FEF7B8FD00281CBFE670A571FA
:1015E00070BD000044010020D000002079010020DF
:1015F00072657365742100006372210063732100BA
:1016000063692100FEE7000002484178491C4170EF
:10161000704700004C00002070B5344D284600F0A3
:1016200090F96FF44031324C40180ED0012827D089
:10163000A0F5802081381DD0022818BF70BD01217F
:101640002846BDE8704000F05CB9A07838B10122AE
:10165000D021284600F0E9F90020A07070BD0022DA
:10166000D021284600F0E1F9A078401CA070214864
:10167000A06070BD21782846BDE8704000F0DDB95B
:1016800000224FF4C061284600F062F9607800281B
:1016900018BF194E24D0C0B2012807D10021284616
:1016A00000F0C6F80121284600F034F931462846FA
:1016B00000F0C7F888B16078022803D100212846DD
:1016C00000F0B6F8284600F0ADF90146A06800F831
:1016D000011BA0606078401E607060780028DAD13D
:1016E0002846BDE87040012100F0A2B80054004037
:1016F0004C000020280100204000030010B5134CCE
:1017000084B0204600F0E0F80020ADF804004BF66D
:10171000FF70ADF806004020ADF808000001ADF8FC
:101720000A000001ADF80C00094800900121204694
:1017300000F09AF86946204600F012F901225102A1
:10174000204600F005F904B010BD0000005800402C
:10175000F049020010B5334C204600F0F2F86FF467
:1017600040314118304812D0A1F58021813935D05F
:10177000022918BF10BD0121204600F0CBF82046F9
:10178000BDE8104000224FF4007100F0E1B8B0F95C
:10179000040001280DD0022812D0032817D00428F5
:1017A00018BF10BD00222046BDE81040582100F0AF
:1017B0003CB920460022BDE81040522100F035B966
:1017C00020460022BDE81040542100F02EB92046EA
:1017D0000022BDE81040562100F027B9B0F90400FE
:1017E000124901280CD0022810D0032814D0042854
:1017F00018BF10BD49782046BDE8104000F01DB963
:1018000009782046BDE8104000F017B989782046D5
:10181000BDE8104000F011B9C9782046BDE810407D
:1018200000F00BB9005800404C00002011000020CF
:101830000029018814BF41F4806121F48061018096
:101840007047838A0022008B43EA004020F07F40EB
:1018500031EA000008BF012210467047C943818267
:101860007047C943818270470029018814BF41F045
:10187000010121F0010101807047000010B5114CF9
:1018800084B0204600F020F80020ADF804004BF6AC
:10189000FF70ADF806004020ADF808000001ADF87B
:1018A0000A000001ADF80C0049F64040009001210B
:1018B0002046FFF7D9FF6946204600F051F804B0F2
:1018C00010BD000000540040A0F1804110B5B1F5FA
:1018D000A8414FF0010109D1480500F02FF9BDE8FA
:1018E000104000214FF4001000F028B94FF48000A0
:1018F00000F024F9BDE8104000214FF4800000F012
:101900001DB90029018814BF41F4807121F4807150
:10191000018070470029018814BF41F4007121F44F
:1019200000710180704700220B0F21F07F4112BF30
:101930001430090C18300068084218BF0122104604
:101940007047818A008B41EA004020F07F40704759
:10195000002A828814BF114322EA01018180704766
:1019600070B50446808886B00D4620F03F06684674
:1019700000F004F929490298B0FBF1F189B246EA76
:101980000102A280228822F001022280244B2A68D0
:101990009A4209D85200B0FBF2F080B2042838BF56
:1019A0000420491C218424E0EB88A3F53F4CBCF1C2
:1019B000FF0C05D102EB4202B0FBF2F080B208E06E
:1019C00002EBC20303EB0212B0FBF2F080B240F470
:1019D00080400205120D08BF40F0010040F40040B5
:1019E0004FF4967251434FF47A72B1FBF2F1491CF5
:1019F0002184A083208840F0010020802088A988CD
:101A00006A8920F00A0020F4806011430843208096
:101A1000A88929890843208106B070BD40420F0083
:101A2000A0860100008AC0B27047002A14BF41F0AE
:101A3000010101F0FE010182704701827047FEE75B
:101A4000704770B4C37802780F244FF0E0214FF054
:101A5000010C03B3D1F80C3D867803F4E063C3F5C1
:101A6000E0631B0AC3F1040524FA03F344781E4023
:101A700004FA05F333430A441B0182F8003400786A
:101A8000420900F01F0001EB82010CFA00F0C1F8DE
:101A9000000170BC704702F01F000CFA00F0520900
:101AA00001EB8201C1F8800170BC7047034940F02E
:101AB000FD7040F080600860704700000CED00E0B1
:101AC000704700000349044A31F8101052F8200012
:101AD00041617047A02C0008040000200349044A1B
:101AE00031F8101052F8200001617047A02C000856
:101AF00004000020044951F82010CA68034B33F851
:101B000010005040C860704704000020A02C00085E
:101B100003494A6822F4404210434860704700007D
:101B200000100240044A0029D16914BF084321EA89
:101B30000000D0617047000000100240044A0029F4
:101B4000116914BF084321EA0000106170470000CA
:101B500000100240044A0029916914BF084321EA99
:101B60000000906170470000001002400248416A86
:101B700041F08071416270470010024026494B6875
:101B8000264A13F00C0318BF042B01D0082B01D0F8
:101B9000026015E04A684B6802F470124FF0020CC4
:101BA0000CEB924213F4803F03D04B6813F4003FD8
:101BB00003D01B4B5A43026002E0184B5A430260A9
:101BC0004A6802F0F0021309164AD35CD0F800C04C
:101BD0002CFA03F34360D1F804C00CF4E06C4FEA34
:101BE0001C2C12F80CC023FA0CFCC0F808C0D1F869
:101BF00004C00CF4605C4FEADC2C12F80C2023FAD1
:101C000002F2C2604968084B01F44041890B595CFB
:101C1000B2FBF1F1016170470010024000127A003E
:101C200000093D00E0000020DC0000200022430904
:101C30000949012B08BF096803D0022B0CBF096AB0
:101C4000496A00F01F00012303FA00F0084218BFA0
:101C500001221046704700000010024003494A6804
:101C600022F4E06210434860704700000010024018
:101C70007047704770470000184810B58188491CAC
:101C800009B28180042904DD00218180FFF736FD3F
:101C900011E0144C12492046FFF7E0FD124920469E
:101CA000FFF7DFFD012251022046FFF751FE01211F
:101CB0002046FFF726FE0D480178491C01700C48AC
:101CC000FEF783FE0B490A88904234BF501E501C19
:101CD0000880BDE8104000F079B900004C000020F9
:101CE00000070010005800400B4700031A000020B6
:101CF000002401401C0000202F48016841F0010130
:101D0000016041682D4A11404160016821F41021B1
:101D100021F080710160016821F480210160426836
:101D20004FF41F0122F4FE0242608160026800212C
:101D300042F4803202600268491C12F4003F02D172
:101D4000B1F5A06FF7D1016811F4003F2FD01C4905
:101D50000A6842F010020A600A6822F003020A6070
:101D60000A6842F001020A604168416041684160CE
:101D700041684160416821F47C114160416841F44F
:101D8000F8114160016841F080710160016811F053
:101D9000007FFBD0416821F003014160416841F0C0
:101DA00002014160416801F00C010829FAD105499E
:101DB0004FF0006008607047001002400000FFF81C
:101DC0000020024008ED00E07047704770470000B7
:101DD00030B587B04FF6FF70ADF814000520ADF8B0
:101DE00010000024134DADF81640ADF8124004A9C0
:101DF000284600F09DF8ADF800400120ADF8020043
:101E000040F2DC50ADF80600ADF8084069462846BF
:101E100000F044F80021284600F082F80122022157
:101E2000284600F033F80121284600F024F807B0D6
:101E300030BD00000004004010B50B4C02212046CC
:101E400000F016F80948007800281CBF0220FFF7B0
:101E500051FE204600F018F800F2DC5081B2204616
:101E6000BDE8104000F062B80004004018000020F7
:101E7000C943018270470029018814BF41F0010164
:101E800021F0010101807047808E7047002A82890D
:101E900014BF114322EA01018181704770B4028CA2
:101EA00022F001020284028C8388B0F818C00D88E9
:101EB0000C892CF0730C22F002024E8845EA0C0CBF
:101EC00022433243A0F18045B5F596351CBFA0F101
:101ED0008044B4F59A340DD0A0F18044B4F5A03418
:101EE0001FBFA0F18044B4F5A234A0F18044B4F542
:101EF000A4340DD14C8922F0080222438C8822F0B0
:101F0000040222438D8923F44073CC892B4323435D
:101F10008380A0F818C0C9888186028470BC70478D
:101F2000028B22F0080211430183704781867047BB
:101F300010B40288234BDFF890C0984218BF604568
:101F400011D0B0F1804F1CBFA0F18044B4F5806483
:101F500009D0A0F18044B4F500641CBFA0F1804416
:101F6000B4F5406403D14C8822F070022243A0F102
:101F70008044B4F580541CBFA0F18044B4F5A05453
:101F800003D0CC8822F44072224302808A8898428F
:101F900082850A88028518BF60450DD0A0F1804275
:101FA000B2F5A0321FBFA0F18042B2F5A232A0F17B
:101FB0008042B2F5A43201D1097A018601218182E1
:101FC00010BC7047002C01400034014004484169B6
:101FD000002908BF70474169491E416170470000F0
:101FE0001800002070B5174D40F22771284600F008
:101FF0006BF8B8B11448154C0068E178415C28468C
:1020000000F024F9E0781249401CC0B2E070097871
:10201000884207D1002240F22771284600F07BF861
:102020000020E07040F22551284600F04DF80028CD
:1020300008BF70BD284600F005F9BDE87040C0B289
:10204000FFF792BA00380140D80000204C00002071
:10205000D500002010B5044800F0F4F8BDE81040A9
:10206000C0B200F04FBC000000440040002981894C
:1020700014BF41F4005121F40051818170470000E8
:1020800010B584B04FF4164000900020ADF8040065
:10209000ADF80600ADF80800ADF80C000C20094CB6
:1020A000ADF80A006946204600F04EF8012240F2E1
:1020B0002551204600F02FF801212046FFF7D6FFDA
:1020C00004B010BD0038014010B401F01F0201241B
:1020D0000023C1F3421C04FA02F2BCF1010F04BF59
:1020E000B0F80CC00CEA020208D0BCF1020F0CBF21
:1020F000B0F810C0B0F814C00CEA0202090A008857
:1021000004FA01F1002A00EA01001CBF00280123A3
:10211000184610BC7047C1F3421301F01F014FF085
:10212000010C0CFA01F1012B08BF0C3003D0022B7B
:102130000CBF10301430002A026814BF114322EA89
:10214000010101607047000030B50446008A85B087
:102150000D464CF6FF710840E98808432082A089AB
:102160004EF6F3110840A9882A8911436A89104361
:102170000843A081A08A4FF6FF410840A98908437F
:10218000A0826846FFF7FAFCA4F18040B0F59C30CD
:102190000CBF03980298A18911F4004F00EBC00115
:1021A00001EB0010296814BF49008900B0FBF1F071
:1021B000114A6FF0180CA2FB0031490909010B0903
:1021C00003FB0CF3B4F80CC000EB830032231CF4C7
:1021D000004F14BF03EBC00003EB0010A2FB002074
:1021E0004FEA501014BF00F0070000F00F00084342
:1021F000208105B030BD00001F85EB5110B584B0C3
:102200004FF4164000900020ADF80400ADF8060031
:10221000ADF80800ADF80C000420094CADF80A0038
:1022200069462046FFF790FF012240F225512046E3
:10223000FFF771FF01212046FFF718FF04B010BD22
:10224000004400408088C0F308007047C1F30801D3
:10225000818070477047FEE702E008C8121F08C17E
:10226000002AFAD170477047002001E001C1121F17
:10227000002AFBD1704700002DE9F041294A2B4D7F
:1022800052F82120C0EBC2072748294A00EB8106FB
:1022900040F821702B7851423069022B18BF00247E
:1022A00008D13C188C42C8BF44F6206402DCA2422C
:1022B000C8BF14463461B068381A68609042B8BF2D
:1022C0006A6002DB8142B8BF69606868FEF7A5F901
:1022D000A969FDF7A7FF80462046FEF79EF96969C8
:1022E000FDF7A0FF04463846FEF797F92969FDF788
:1022F00099FF2146FDF73EFF4146FDF73BFFFEF704
:10230000B8F942F21071B0618842C8BF42F2107051
:102310000849B0618842D8BF0846B760B061BDE8DF
:10232000F0810000340100209400002068000020AB
:10233000E0B1FFFFF0D8FFFF82B0FFF7DDFC4FF404
:102340008060FFF78BFC4FF48040FFF7E1FB012139
:102350000D20FFF7FFFB01210220FFF7E3FB012126
:102360004802FFF7F7FB01214805FFF7DBFB0121DE
:102370008805FFF7D7FB01218803FFF7EBFB01215D
:102380004804FFF7CFFB4FF44070FFF78FFB1F208F
:102390008DF8000001248DF801408DF802408DF881
:1023A00003406846FFF74DFB21208DF800008DF8B3
:1023B00001408DF802408DF803406846FFF741FB6D
:1023C0001D208DF8000003258DF801508DF8024086
:1023D0008DF803406846FFF734FB25208DF8000098
:1023E0008DF8015002208DF802008DF803406846F8
:1023F000FFF727FB26208DF800008DF801508DF89F
:1024000002508DF803406846FFF71BFB4FF0E024B5
:10241000202084F8230DFEF733FEFEF7F3FDFEF7D0
:10242000D5FBFEF7CBFD00F0E3FA5D484FF47A717F
:102430000068B0FBF1F0B0F1807F4DD220F07F401A
:10244000401E6061F02084F8230D4FF0000BC4F8AB
:1024500018B007202061FFF713FEFFF7CFFEFFF74C
:102460004DF9FEF767FAFFF7B3FCFFF707FA7B2099
:10247000FFF7DCFBDFF82C914B4C01282DD001201D
:10248000FFF72CFB0020FFF729FB012560880428BB
:10249000FCD9A4F802B0062242491D2000F084FBBA
:1024A000B9F80000E38940BAB9F80210B9F804207D
:1024B000C01A2081208A49BA081A6081608A52BAFB
:1024C000101AA08100F076F8FEF7A2FEA088E1883D
:1024D000814288BF2570D9E7FEE7FFF747FB40F64A
:1024E000B830606160690028FCD1304EF18842F25A
:1024F000FC1081423CBFB188814212D20120FFF71B
:10250000EDFA42F22830B1888142FCD3642025469E
:10251000606168690028FCD10120FFF7D3FAFEF75B
:10252000F5FA00263746B04635464FF0140A062223
:102530001C491D2000F038FB99F8000099F80110A3
:10254000000200B20843064499F8020099F803100B
:10255000000200B20843074499F8040099F80510F6
:10256000000200B208438044C4F814A06069002847
:10257000FCD16D1C642DDADB0D4880FB06214A116D
:10258000A2EBE171E18180FB07214A11A2EBE1712D
:10259000218280FB08104111A1EBE070608271E79D
:1025A000F000002028010020180000200401002075
:1025B0001F85EB512DE9F05F6B4DE8886B49C968C9
:1025C000401AFEF738F80022694BFDF7B7FFFEF717
:1025D0007DF8684CE060654829884068401A606072
:1025E000688862490968401A2060A8885F4989683C
:1025F000401AA06060480021B0F90000FFF73CFEDF
:102600005E480121B0F90000FFF736FE5C48A16882
:102610005C4EB0F9000000EB810737607068381A33
:10262000FDF7FBFFA6F15404A16AFDF7FBFD804610
:10263000B068FDF7F2FF616AFDF7F4FD81463846A8
:10264000FDF7EBFF216AFDF7EDFD4946FDF792FD31
:102650004146FDF7E1FDFEF70CF87760F060E88891
:10266000FDF7FAFFDFF82081DFF8209142464B4664
:10267000FDF7F3FE06460F46A068FDF7DCFFDFF826
:1026800010A1DFF810B152465B46FDF7E6FE324678
:102690003B46FDF73DFEFEF719F80646A060688947
:1026A000FDF7DAFF42464B46FDF7D7FE05460F46DB
:1026B000E068FDF7C0FF52465B46FDF7CEFE2A46B6
:1026C0003B46FDF725FEFEF701F8E060024694F870
:1026D00000C0002030494FF0010842F2283342F296
:1026E000FC15BCF1000F13D043F2D407BCF1010F6D
:1026F0001BD0BCF1020F18BFBDE8F09F00F04EF8F0
:10270000E068B842BCBFA068A8420ADBBDE8F09F01
:102710000870C870487088709A42CCBFB542BDE856
:10272000F09F84F80080BDE8F09F94F801C081F824
:1027300000C094F801C081F803C094F801C081F88A
:1027400001C094F801C081F802C09342C4BF207058
:10275000BDE8F09F9742BDBFAE4202202070BDE8A9
:10276000F09FBDE8F09F0000040100201801002048
:102770000000F83F3401002020000020220000204B
:1027800024000020BC000020989999999999B93F9C
:10279000CDCCCCCCCCCCEC3F110000202DE9F0010D
:1027A0005448554F554BC56807F12800BC69C668A9
:1027B000291B881983FB00108110A1EBE071A7F1A0
:1027C0002C004F4AC16192F800C08C4507DCA1EB98
:1027D0000C08B8F1140FC8BF0CF1140106E0ACEB03
:1027E0000108B8F1140FC8BFACF11401C16190F831
:1027F00001804FF0FF0C4145BCBF4178117004DBF4
:10280000FF29CCBF82F800C011702919314483FB25
:1028100001418C10A4EBE171C161D4788C4207DCDA
:10282000A1EB0408B8F1140FC8BF04F1140106E0CD
:10283000A4EB0108B8F1140FC8BFA4F11401C161E1
:102840004478A142BCBF4178D17004DBFF29CCBFE2
:1028500082F803C0D170FF69E91B891B83FB01412A
:102860008C10A4EBE171C16154788C4207DCA1EBC0
:102870000408B8F1140FC8BF04F1140106E0A4EB7A
:102880000108B8F1140FC8BFA4F11401C161447864
:10289000A142BCBF4178517004DBFF29CCBF82F854
:1028A00001C05170E919891B83FB01318B10A3EB27
:1028B000E171C16193788B4205DCCC1A142CC8BF3E
:1028C00003F1140104E05C1A142CC8BFA3F1140135
:1028D000C16143789942BFBF40789070BDE8F00174
:1028E0007047FF29CCBF82F802C09170BDE8F001AB
:1028F000704700003401002094000020ABAAAA2AEF
:102900001100002000233349FF2801BF4A78FF2A25
:102910000B708B7008BF7047F0B42E4A91F800C05E
:1029200094780832BCF1000F1DD0CD78AC451FD98A
:102930006FEA040C0CF0FF0C81F802C0BCF1FF0F31
:1029400004BF4FF0FE0C81F802C00CF0FF0C604594
:102950003CD1214C92F800C06578E6782779BCF12B
:102960001F0F15D10EE01F280CBF05230423CB70C9
:1029700002F80C0022188A700CF101020A704870EB
:10298000F0BC7047154C2570154C2670154C2770FF
:102990000CF0F004102C19D10CF00F040A2C15D2F5
:1029A000DFF844C08CF8015092788CF800208CF845
:1029B00003600E4D8CF80270BCF8002025F814203E
:1029C000621CD4B2BCF8022025F814200B708B7066
:1029D000D5E70000580000206000002049000020DA
:1029E00010000020480000205C00002004010020AE
:1029F000F8B55F4C45F25550211DFEF7E9F942F656
:102A00003335002818BF6560594946F26660FEF705
:102A1000DFF9002818BF256004F1080147F277703C
:102A2000FEF7D6F9002818BFA56004F10C0148F69E
:102A30008800FEF7CDF900281CBF42F26C00E06070
:102A4000694649F69910FEF7C3F94A4C4A4E0028E8
:102A500018BF4A484CD02060694644F24440FEF713
:102A6000B7F9474D0024002818BF2C6048D06946AC
:102A700043F23330FEF7ACF9424D002818BF2C600A
:102A800047D0694642F22220FEF7A2F93E4D0028C7
:102A900018BF3E4846D02860694641F21110FEF743
:102AA00097F93B4D002818BF2C6043D0694641F28E
:102AB0003420FEF78DF9374D002818BF2C6042D026
:102AC000694644F22130FEF783F9334C002818BFE1
:102AD00040F2AE7040D0E080304941F22210FEF763
:102AE00077F9002808BFF8BD1E202C490870F8BDF2
:102AF000BDF80000FDF79AFD3146FDF7C9FBAAE7D6
:102B0000BDF80000FDF792FD3146FDF7C1FB2860DE
:102B1000ADE7BDF80000FDF789FD3146FDF7B8FBD4
:102B20002860AEE7BDF80000FDF780FD3146FDF7F7
:102B3000AFFBB0E7BDF80000FDF778FD3146FDF7CB
:102B4000A7FB2860B2E7BDF80000FDF76FFD314636
:102B5000FDF79EFB2860B3E7BDF80000FDF77CFDA4
:102B60000F4A104BFDF779FCFDF7CFFDB3E70000EE
:102B7000180100207800002000007F4323DBF93D8E
:102B80007C0000208000002088000020CDCC4C3D3F
:102B90008C00002090000020180000206900002018
:102BA000AE47E17A142E26402DE9F047364F804695
:102BB0000E4615464FF400313846FEF7B4FE0028A5
:102BC000F8D101213846FEF79CFE304C38462146AC
:102BD000FEF737FE0028F9D00022D0213846FEF754
:102BE00024FFDFF8AC9038464946FEF72AFE00285D
:102BF000F9D041463846FEF720FFDFF89880384686
:102C00004146FEF71EFE0028F9D001213846FEF7A6
:102C100078FE21463846FEF714FE0028F9D001223E
:102C2000D0213C463846FEF700FF1B4F2046394670
:102C3000FEF707FE0028F9D0002D18BF174F1CD053
:102C4000012D07D100212046FEF7F2FD012120468B
:102C5000FEF760FE39462046FEF7F3FD58B1022D1F
:102C600003D100212046FEF7E3FD2046FEF7DAFE01
:102C700006F8010B6D1E002DE2D12046BDE8F0479D
:102C80000121FEF7D5BD0000005400400100030003
:102C900082000700840007000200030040000300D8
:102CA0001000200020000000C82C000800000020B8
:102CB0000401000058220008CC2D00080401002067
:102CC000C404000068220008000000000008014061
:102CD00000080140000C014000000000000000005E
:102CE00000000000102700000000000000000000AD
:102CF0000000000000000000555566667777888860
:102D00009999444433332222111134122143221160
:102D1000000000001B080000000000000000000090
:102D200000000000000000000000000000000000A3
:102D30000000000000000000000000000000000093
:102D40000000000000000000000000000000000083
:102D5000000000000000000000000000DB17000081
:102D6000DB17000000000000000000000000000071
:102D70000000000000000000000000000000000053
:102D800000000000C076000000000000000000000D
:102D90000000000000000000000000000000000033
:102DA0000000000002040608000000000102030405
:102DB0000102030406070809005125020000000073
:0C2DC000000000000102030406070809DF
:04000005080000ED02
:00000001FF
