:020000040800F2
:10000000C805002001010008A11A000865160008B3
:100010009F1A0008090B0008B72200080000000022
:10002000000000000000000000000000D51C0008D7
:10003000C90B000800000000211B0008D91C0008A3
:100040001B0100081B0100081B010008D31C00084D
:100050001B0100081B0100081B0100081B01000810
:100060001B0100081B0100081B0100081B01000800
:100070001B0100081B0100081B0100081B010008F0
:100080001B0100081B010008F10800081B01000803
:10009000B52200081B0100081B0100081B01000815
:1000A0001B0100081B0100082B1E0008291E000868
:1000B0002D1E0008991E00081B0100087916000873
:1000C00069160008B51700081B0100081B0100088D
:1000D0001B01000845200008B52000081B0100088E
:1000E0001B010008D11C00081B010008DFF80CD020
:1000F00000F0ECFB0048004799230008C8050020E9
:100100000648804706480047FEE7FEE7FEE7FEE7B1
:10011000FEE7FEE7FEE7FEE7FEE7FEE7591D000803
:10012000ED00000840EA01039B0703D009E008C97D
:10013000121F08C0042AFAD203E011F8013B00F8AC
:10014000013B521EF9D2704730B50EE003460A4615
:1001500001E05B1C521C1C781578AC4201D1002CCC
:10016000F7D115F0FF0F04D0401C0278002AEDD122
:10017000002030BDF0B480EA0102D20F4300B3EB9F
:10018000410F02D20346084619464B0042D0C30D28
:10019000DDB2C1F3C7542C1B202C35DAC1F3160194
:1001A00041F4000502B16D42C4F1200605FA06F1E2
:1001B00025412844B3EBD05F23D0C2B1012CA0EB82
:1001C000C35009DCF0BC4FF0004202EAC35200F514
:1001D0000000DBB200F0EABA400000F1807000EBF2
:1001E000C350A0F1807040EAD170490009E049088D
:1001F00041EAC071A0EBC35000F50000400800EBDD
:10020000C350F0BC00F0C9BA5142012303EB4101D5
:10021000801AF6E7F0BC704781F00041AAE780F051
:100220000040A7E780EA010210B502F0004240005A
:1002300026D04B0023D04FEA106101EB1361C0F3CD
:100240005600C3F3560340F4000043F40003A0FB40
:100250000330A1F17F014FEA00401C0401D000F1FE
:10026000010050EA134001D44000491EC3B20C06FD
:1002700004EBD010401C4008802B02D003E000208B
:1002800010BD20F00100002900DA0020104310BD4D
:1002900080EA010202F0004330B430F0004221F065
:1002A000004015D0A0B1C0F3C755C2F3C754C2F384
:1002B0001601C0F31600651B41F4000140F4000074
:1002C0007D35814201D36D1C00E04900002D02DA2A
:1002D00030BC002070474FF400020024814201D35B
:1002E000091A144352084FEA4101F7D151B1814232
:1002F00002D14FF0004105E002D24FF0010101E0D0
:100300006FF0010104EBC55030BC184400F045BA51
:100310002DE9FE4F074681EA0300C00F0E4601900B
:1003200021F0004123F00044B81AA14105D238461B
:10033000314617461E460B46024623F00040104346
:1003400004D13846314603B0BDE8F08F350DC5F312
:100350000A00C3F30A510290401A0090402867DA5D
:10036000C3F3130040F4801B0198924620B1002390
:10037000D2EB030A63EB0B0B00985946C0F1400225
:10038000504600F0D9F980460C4650465946009A2E
:1003900000F0F1F9C0197141EF1785EA11533B43A1
:1003A0003FD0019A4AB3009A012A11DC0022801A38
:1003B00061EB05514FF0004303EA0555CDE90025F7
:1003C000801841F580114246234600F02BFABAE727
:1003D0002E050025401B61EB0601401941F58012F6
:1003E000001852412818A6F5001343EB020140EA19
:1003F000D47018EB0808644113E064084FEA380829
:100400004FF0000244EAC0744FEA0553801A61EBD2
:100410000301801841F5801149084FEA3000801827
:1004200059414246234603B0BDE8F04F00F0EDB914
:100430000198012240000023D0EB020263EBE0733D
:1004400001984FEAE074381A66EB0401EBE783F099
:1004500000435DE781F000415AE72DE9FE4F81EA54
:10046000030421F0004504F0004423F000414FF064
:10047000000A009450EA050302D052EA010304D1B5
:100480000020014603B0BDE8F08FC1F30A53C5F365
:100490000A542344A3F2F3330193A0FB02B3C5F340
:1004A000130545F4801CC1F3130141F480180CFBC3
:1004B000023300FB083E810A930A41EA8C5143EA69
:1004C0008853A1FB03474FEA9C2505FB03734FEAC2
:1004D000982601FB06373D05260545EA1435BBEB9A
:1004E00006016EEB0503850E920E45EA8C1542EA75
:1004F0008812A5FB0206261E67EB00070C0D44EAD6
:100500000334A61947EB1350C1F313044FF0000353
:100510001946E5FB02014FEA033545EA1455019BF4
:100520004FEA0432009CA3F10C03CDE900A445EA94
:10053000060502932B4600F075F9A3E72DE9F04D6F
:1005400081EA030404F0004B21F0004714464FF009
:10055000000A23F0004150EA070220D054EA0102C9
:100560001DD0C1F30A550246C1F31300C7F30A5662
:10057000C7F3130340F4801143F48013A6EB05087E
:10058000101BD64608F2FD3873EB010002D308F1C8
:10059000010801E092185B41B8F1000F03DA002076
:1005A0000146BDE8F08D00204FF480150646074651
:1005B0000EE0B2EB040C73EB010C04D3121B0643E8
:1005C00063EB01032F436D084FEA300092185B4143
:1005D00050EA050CEDD152EA030012D082EA040081
:1005E00083EA0105284303D100224FF0004308E0CD
:1005F000101B8B4102D20122002302E06FF00102A6
:1006000053101AEB060047EB085110EB0A0041EBC0
:100610000B01BDE8F04D00F0F8B8C10F80EAE070C2
:100620000844CA079623002100F0C0B89623002290
:10063000114600F0BBB80EB5C10F80EAE070084467
:10064000CA07002140F233438DE80E000A460B46EC
:1006500000F0E8F803B000BD0EB5002240F23343CD
:10066000CDE9002202931346114600F0DBF803B0F7
:1006700000BD00F0004220F00040C10DC0F31600A4
:1006800040F400007F2901DA00207047962903DC3E
:10069000C1F19601C84001E096398840002AF4D0A3
:1006A0004042704720F00040C10DC0F3160040F4F6
:1006B00000007F2901DA00207047962903DCC1F190
:1006C0009601C840704796398840704770B5C1F3AD
:1006D0000A5201F000450024C1F3130140F2FF3338
:1006E00041F480119A4201DA002070BD40F2334398
:1006F0009A42A2F2334203DC524200F02CF800E0AE
:1007000090402C43F1D0404270BDC1F30A52C1F376
:10071000130140F2FF3341F480119A4201DA0020C4
:10072000704740F233439A42A2F2334202DC524213
:1007300000F011B890407047202A04DB203A00FAFC
:1007400002F1002070479140C2F1200320FA03F328
:10075000194390407047202A04DB203A21FA02F026
:100760000021704721FA02F3D040C2F120029140EB
:10077000084319467047202A06DBCB17203A41FA76
:1007800002F043EAE07306E041FA02F3D040C2F11E
:10079000200291400843194670470029A8BF7047BE
:1007A000401C490008BF20F00100704710B4B0FAA7
:1007B00080FC00FA0CF050EA010404BF10BC704742
:1007C00049B1CCF1200421FA04F411FA0CF118BF5C
:1007D000012121430843A3EB0C01CB1D4FEA00612B
:1007E0004FEA102048BF0020BCBF10BC704700EB90
:1007F000C35010440029A4BF10BC7047401C4900DE
:1008000008BF20F0010010BC704710B5002B08DABB
:10081000401C41F1000192185B411A4301D120F0C4
:10082000010010BD2DE9FF4D934611B1B1FA81F2DF
:1008300002E0B0FA80F220329246FFF77DFF039A81
:100840000746884640EA0B0011435B46084304D143
:100850003846414604B0BDE8F08D114653EA020027
:1008600016D0CAF140025846FFF775FF04460D4600
:100870004FF00106584652460399FFF75DFF0843C3
:1008800000D10026344345EAE675274345EA0808C7
:100890000E984FF00005A0EB0A014FEAD7200A316D
:1008A0004FEA47532A4640EA48504FEAD82402D537
:1008B00000200146CEE7281844EB0151DDE90C4544
:1008C000001904B06941BDE8F04D9EE7064C074DA4
:1008D00006E0E06840F0010394E807009847103410
:1008E000AC42F6D3FFF706FC382D0008582D00085F
:1008F00010B50E4C4FF49061204600F069F820B11D
:100900004FF49061204600F04BF8094C4FF4906191
:10091000204600F05DF8002808BF10BD4FF490613C
:100920002046BDE8104000F03BB800000024014024
:100930000028014010B586B000224FF4602001214C
:10094000CDE902028DF80420144C8DF805108DF8C5
:10095000101000926946204600F052F8012120460E
:1009600000F022F8072301220921204600F06EF84A
:10097000204600F0B6F8204600F03AF80028FAD1F8
:10098000204600F0BCF8204600F017F80028FAD105
:100990000121204600F0AAF806B010BD0024014055
:1009A0006FEA1121016070470029816814BF41F08E
:1009B000010121F001018160704701460020896832
:1009C00011F0040F18BF01207047C06C80B270474F
:1009D00010B40022D0F804C00B0ACCB201680CEAB3
:1009E000040019421CBF00280122104610BC7047A9
:1009F00001460020896811F0080F18BF01207047D8
:100A000010B4426891F804C022F4807222F470227B
:100A10000B6842EA0C221A43426082680A4B4C7906
:100A20001A40D1E902C342EA440243EA0C031A43E2
:100A30008260C26A097C22F47002491EC9B242EA8D
:100A40000151C16210BC7047FDF7F1FF30B44FF0A7
:100A5000070C09290DD9C568A1F10A0404EB440467
:100A60000CFA04FC25EA0C0CA3404CEA0303C36017
:100A70000AE0046901EB41050CFA05FC24EA0C0CC0
:100A8000AB404CEA030303611F23072A0CD2D0F8C2
:100A900034C0521E02EB820293402CEA03039140C1
:100AA0001943416330BC70470D2A0DD2D0F830C0D5
:100AB000D21F02EB820403FA04F22CEA0202A140E4
:100AC0001143016330BC7047D0F82CC00D3A02EBE3
:100AD000820293402CEA030391401943C16230BC67
:100AE0007047816841F00801816070470029816882
:100AF00014BF41F4A00121F4A00181607047816816
:100B000041F0040181607047FEE700002DE9F041EB
:100B10004FF0000C284A29486446654666466346FD
:100B2000142700BFB2F800805188C444B2F8048092
:100B30000C44D18845440E44876181690029FCD169
:100B40005B1C642BEEDB1E481E4F80FB0C214A1100
:100B5000A2EBE171796080FB04214A11A2EBE17103
:100B6000396080FB05214A11A2EBE171B96080FB7D
:100B700006104111A1EBE070F86000F043FA7868CC
:100B800081B245F2555000F09DF9386881B246F2C5
:100B9000666000F097F9B86881B247F2777000F0AC
:100BA00091F9F86881B248F6880000F08BF9BDE849
:100BB000F04100F003BA00000801002018000020F6
:100BC0001F85EB511C010020704700002DE9F04704
:100BD0007B4E0024651E3288B6F80004DFF8E481FD
:100BE000290C794FDFF8E491002A7AD0A2F56E4201
:100BF000EE3A38D0A2F58851113905D0304600F0D0
:100C0000BDF904286ED1CBE098B1A0F56E41EE3964
:100C1000304616D100F0B2F9042818BFBDE8F087BD
:100C20000021404600F0D2F9042818BFBDE8F08743
:100C3000C3E0304600F0A2F9042818BFBDE8F087F1
:100C4000BBE000F09BF9042808D10021304600F0F9
:100C5000BDF9042804BF404600F090F9042818BFED
:100C6000BDE8F087A9E088B188423CD1404600F059
:100C700085F9042818BFBDE8F0870021304600F050
:100C8000A5F9042818BFBDE8F08796E0F18837F889
:100C90001400814208BF25B2AC420ED04B4900F08F
:100CA00097F8012809D037F81400B9F8001000F0BF
:100CB000D3F8042818BFBDE8F087601C84B20D2C5F
:100CC000E4D30021304600F081F9042818BFBDE8C4
:100CD000F087404600F052F9042818BFBDE8F087BD
:100CE0006BE013E065E0304600F048F9042808D1D5
:100CF0000021304600F06AF9042804BF404600F0A5
:100D00003DF9042818BFBDE8F08756E048B1884295
:100D10001AD1404600F032F9042818BFBDE8F08728
:100D20004BE0304600F02AF9042808D10021304673
:100D300000F04CF9042804BF404600F01FF90428D5
:100D400018BFBDE8F08738E0B6F8061437F814008D
:100D5000814208BF25B2AC420ED01C4900F038F8E1
:100D6000012809D037F81400B9F8001000F074F821
:100D7000042818BFBDE8F087601C84B20D2CE3D3B3
:100D80000021404600F022F9042818BFBDE8F08792
:100D9000304600F0F3F8042818BFBDE8F0870CE0F7
:100DA0000021304600F012F9042804BF404600F04C
:100DB000E5F8042818BFBDE8F0870420BDE8F087F7
:100DC0000000010800040108340000200000002099
:100DD00070B41F4A002301251488B2F800C42E46BF
:100DE00034B1BCF1000F0FBF3346AB2070BC70476D
:100DF00002EB832CBCF1004F164A02EB832238BF72
:100E0000B2F1004F0AD30CF1020C62451DD91388D0
:100E1000834216D0121F6245F9D816E00124ACEBCC
:100E200002035B1E4FEAE37C03EB9C73A6EBA30378
:100E3000A3420ADDB2F800C084451CBF121F641C27
:100E4000F6D132F8020C00250880284670BC7047A5
:100E500000000108FE03010870B5184A0E46054659
:100E600011880020B2F8003401244EF6EE6CABB1CC
:100E700000291CBFAB2070BD634500D1204610493E
:100E800002EB802401EB80218C4205D22068401CBB
:100E900007D0241DA142F9D8802070BD6145EED055
:100EA000ECE73146204600F091F8042818BF70BDE9
:100EB0002946A01CBDE8704000F088B80000010879
:100EC000FE0301082DE9F04780460D46FFF7C4FFF9
:100ED000802818BFBDE8F087244E002437463188AB
:100EE000B6F800242248002908BF064605D0002A8B
:100EF0000EBF0746AB20BDE8F0874EF6EE613046E8
:100F000000F064F8042818BFBDE8F0872946404681
:100F1000FFF7A2FF042806BF164DDFF85C90BDE87E
:100F2000F08700BF35F8140040450ED01249FFF796
:100F30004FFF012809D035F81400B9F80010FFF769
:100F40008BFF042818BFBDE8F087601C84B20D2C0D
:100F5000E8D3384600F012F8042818BFBDE8F0873F
:100F600000213046BDE8F04700F030B8000001082D
:100F700000040108340000200000002030B50546C0
:100F80004FF4302000F04AF8042818BF30BD0A4C56
:100F9000206940F0020020616561206940F0400056
:100FA00020614FF4302000F039F8216941F6FD72DC
:100FB0001140216130BD000000200240024801695B
:100FC00041F08001016170470020024070B5054684
:100FD0000E464FF4005000F021F8042818BF70BDF1
:100FE000074C206940F0010020612E804FF4005032
:100FF00000F014F8216941F6FE721140216170BDC4
:1010000000200240034802494160034941607047A3
:101010002301674500200240AB89EFCD174A014606
:101020000420D36813F0010F08D0A9B1D3680420BD
:1010300013F0010F18BF01201BD10FE0D36813F08C
:10104000040F18BF022004D1D26812F0100F18BF8D
:101050000320002918BF704705207047D36813F09C
:10106000040F18BF022004D1D36813F0100F18BF6B
:101070000320491E0128D8D0EBE7000000200240E1
:10108000F8B51025ADF80050344F8DF80350032407
:101090008DF802406946384600F064F82026ADF825
:1010A00000606946384600F05DF8ADF800602C4EEF
:1010B0008DF803508DF802406946304600F052F832
:1010C0000225ADF8005000208DF803008DF8024095
:1010D0006946304600F046F82802ADF800008DF869
:1010E000025018208DF803006946384600F03AF89F
:1010F0004FF48160ADF8000004208DF803006946CC
:10110000384600F02FF8C020ADF800008DF80240FE
:101110001C258DF803506946304600F023F8A002E4
:10112000ADF800008DF802408DF803506946304656
:1011300000F018F80121480500F030FD00214FF4BF
:10114000001000F02BFD0121880500F027FD002193
:101150004FF4800000F022FDF8BD000000080140BF
:10116000000C01402DE9F001CB78002213F0100FA4
:1011700003F00F0C1CBF8B7843EA0C0C0B880F2676
:10118000012513F0FF0F18BF046819D00F8805FA66
:1011900002F31F409F420FD1970006FA07F824EA96
:1011A00008040CFA07F73C43CF78282F08BF4361A7
:1011B00002D0482F08BF0361521C082AE6D30460FE
:1011C0000A88FF2A87BF44680022BDE8F001704703
:1011D00002F108030F8805FA03F31F409F420FD165
:1011E000970006FA07F824EA08040CFA07F73C43CC
:1011F000CF78282F08BF4361CF78482F08BF0361FD
:10120000521C082AE4D34460BDE8F0017047000096
:101210002DE9F05FCD4F38780024002818BF3C70CE
:101220003879DFF82C93CB4DCB4E00287ED0A879AF
:10123000FFF7FCF94946FFF72BF8C8490860E87941
:10124000FFF7F4F94946FFF723F8C5490860287FFE
:10125000FFF7ECF94946FFF71BF8C2490860E87A46
:10126000FFF7E4F94946FFF713F8BF490860287B08
:10127000FFF7DCF94946FFF70BF8BC490860BC48AA
:10128000297D0170687DFFF7E7F9BA4ABA4BFFF78D
:10129000E4F8FFF73AFAB9490880304669780088DF
:1012A000002914BF40F0010020F001003080A87830
:1012B0000028308814BF40F0020020F00200308087
:1012C000E8780028308814BF40F0040020F00400C3
:1012D0003080FFF797FEA97949F69910FFF7F2FDE4
:1012E000E97944F24440FFF7EDFD297F43F23330C2
:1012F000FFF7E8FDE97A42F22220FFF7E3FD297BC0
:1013000041F21110FFF7DEFD697D44F22130FFF755
:10131000D9FD297D41F22210FFF7D4FD31884AF62C
:10132000AA20FFF7CFFDFFF749FE00E000E03C7187
:101330007878DFF84C82002808F1560B7AD07C7060
:101340004FF0010A85F800A0308800F001016970B3
:1013500000F00201A97000F00400E8707F482C71D1
:101360006C7149460068FEF75DFFFFF79BF9A871B5
:101370007B4849460068FEF755FFFFF793F9E8718F
:101380002C7279486C72AC7249460068FEF74AFFCD
:10139000FFF788F9E872754849460068FEF742FF92
:1013A000FFF780F928736C73AC73EC732C746C7456
:1013B0006F48AC74EC740078287570480088401D44
:1013C000FFF74AF96B4A6C4BFFF7B8F8FFF79DF946
:1013D0006875AC75EC75042028760220687685F86F
:1013E0001AA00320E8765F4849460068FEF71AFF16
:1013F000FFF758F928776C77AC77EC7761A085F820
:1014000020400168C8F856108088A8F85A0088F86B
:101410005C40212208F135010BF10600FEF782FE47
:101420002720C7F808B07871012240F22771574889
:1014300000F0A1FEB878002808BFBDE8F09FBC709E
:101440005348544D2346B0F90000C11700EB5161D9
:10145000802000EBE11129704F496C70AC70B1F93C
:101460000010CA1701EB526100EBE111E9704B4922
:101470002C716C71B1F90010CA1701EB526100EBCD
:10148000E110A8714648474AC16801F5FA7182FB2C
:101490000121CA10A2EBE171E971416801F6F16224
:1014A0004149C1FB02321311A3EBE2722A720268B6
:1014B000234602F6F162C1FB02321311A3EBE27282
:1014C0006A728068224600F6F160C1FB00200211BA
:1014D000A2EBE070A87235484089A0F5E050B6381C
:1014E000C1FB00400111A1EBE070E87230480088B8
:1014F000FFF7B2F82F4A304BFFF720F800222F4BAE
:10150000FEF7A5FFFFF701F92DA128730A68C8F8B7
:1015100056208988A8F85A10D8F82810C8F85B1007
:10152000D8F82C10C8F85F10D8F83010C8F863103D
:1015300088F867001220C7F808B07871BDE8F05F3E
:10154000012240F22771114800F015BED40000209E
:1015500000007F437D0100202C0000207C00002043
:1015600080000020840000208C00002090000020DB
:101570006D000020AE47E17A142E26401E000020A8
:1015800048010020732370210D0A0000003801403B
:1015900022000020700100202000002024000020F4
:1015A00038010020676666668988888808010020FF
:1015B0001C000020C3F5285C8FC21540000070405D
:1015C0007373210D0A00000070B51F4C1D4BA279EA
:1015D000511CC9B29854A171E2780025012662B16C
:1015E000212998BF70BDA5712671E570BDE87040D6
:1015F0002122591C1548FEF795BD212802D0232928
:1016000038BF70BDA57112A10E48FEF79DFD0028E0
:1016100018BF267010A10B48FEF796FD002818BFD2
:1016200066700EA10748FEF78FFD002818BFA67050
:101630000BA10448FEF788FD00281CBFE670A571C9
:1016400070BD000048010020D40000207D01002072
:101650007265736574210000637221006373210059
:1016600063692100FEE7000002484178491C41708F
:10167000704700005000002070B5344D284600F03F
:1016800090F96FF44031324C40180ED0012827D029
:10169000A0F5802081381DD0022818BF70BD01211F
:1016A0002846BDE8704000F05CB9A07838B101224E
:1016B000D021284600F0E9F90020A07070BD00227A
:1016C000D021284600F0E1F9A078401CA070214804
:1016D000A06070BD21782846BDE8704000F0DDB9FB
:1016E00000224FF4C061284600F062F960780028BB
:1016F00018BF194E24D0C0B2012807D100212846B6
:1017000000F0C6F80121284600F034F93146284699
:1017100000F0C7F888B16078022803D1002128467C
:1017200000F0B6F8284600F0ADF90146A06800F8D0
:10173000011BA0606078401E607060780028DAD1DC
:101740002846BDE87040012100F0A2B800540040D6
:10175000500000202C0100204000030010B5134C65
:1017600084B0204600F0E0F80020ADF804004BF60D
:10177000FF70ADF806004020ADF808000001ADF89C
:101780000A000001ADF80C00094800900121204634
:1017900000F09AF86946204600F012F90122510241
:1017A000204600F005F904B010BD000000580040CC
:1017B000F049020010B5334C204600F0F2F86FF407
:1017C00040314118304812D0A1F58021813935D0FF
:1017D000022918BF10BD0121204600F0CBF8204699
:1017E000BDE8104000224FF4007100F0E1B8B0F9FC
:1017F000040001280DD0022812D0032817D0042895
:1018000018BF10BD00222046BDE81040582100F04E
:101810003CB920460022BDE81040522100F035B905
:1018200020460022BDE81040542100F02EB9204689
:101830000022BDE81040562100F027B9B0F904009D
:10184000124901280CD0022810D0032814D00428F3
:1018500018BF10BD49782046BDE8104000F01DB902
:1018600009782046BDE8104000F017B98978204675
:10187000BDE8104000F011B9C9782046BDE810401D
:1018800000F00BB90058004050000020110000206B
:101890000029018814BF41F4806121F48061018036
:1018A0007047838A0022008B43EA004020F07F408B
:1018B00031EA000008BF012210467047C943818207
:1018C0007047C943818270470029018814BF41F0E5
:1018D000010121F0010101807047000010B5114C99
:1018E00084B0204600F020F80020ADF804004BF64C
:1018F000FF70ADF806004020ADF808000001ADF81B
:101900000A000001ADF80C0049F6404000900121AA
:101910002046FFF7D9FF6946204600F051F804B091
:1019200010BD000000540040A0F1804110B5B1F599
:10193000A8414FF0010109D1480500F02FF9BDE899
:10194000104000214FF4001000F028B94FF480003F
:1019500000F024F9BDE8104000214FF4800000F0B1
:101960001DB90029018814BF41F4807121F48071F0
:10197000018070470029018814BF41F4007121F4EF
:1019800000710180704700220B0F21F07F4112BFD0
:101990001430090C18300068084218BF01221046A4
:1019A0007047818A008B41EA004020F07F407047F9
:1019B000002A828814BF114322EA01018180704706
:1019C00070B50446808886B00D4620F03F06684614
:1019D00000F004F929490298B0FBF1F189B246EA16
:1019E0000102A280228822F001022280244B2A6870
:1019F0009A4209D85200B0FBF2F080B2042838BFF6
:101A00000420491C218424E0EB88A3F53F4CBCF161
:101A1000FF0C05D102EB4202B0FBF2F080B208E00D
:101A200002EBC20303EB0212B0FBF2F080B240F40F
:101A300080400205120D08BF40F0010040F4004054
:101A40004FF4967251434FF47A72B1FBF2F1491C94
:101A50002184A083208840F0010020802088A9886C
:101A60006A8920F00A0020F4806011430843208036
:101A7000A88929890843208106B070BD40420F0023
:101A8000A0860100008AC0B27047002A14BF41F04E
:101A9000010101F0FE010182704701827047FEE7FB
:101AA000704770B4C37802780F244FF0E0214FF0F4
:101AB000010C03B3D1F80C3D867803F4E063C3F561
:101AC000E0631B0AC3F1040524FA03F344781E40C3
:101AD00004FA05F333430A441B0182F8003400780A
:101AE000420900F01F0001EB82010CFA00F0C1F87E
:101AF000000170BC704702F01F000CFA00F05209A0
:101B000001EB8201C1F8800170BC7047034940F0CD
:101B1000FD7040F080600860704700000CED00E050
:101B2000704700000349044A31F8101052F82000B1
:101B300041617047302D0008040000200349044A29
:101B400031F8101052F8200001617047302D000864
:101B500004000020044951F82010CA68034B33F8F0
:101B600010005040C860704704000020302D00086D
:101B700003494A6822F4404210434860704700001D
:101B800000100240044A0029D16914BF084321EA29
:101B90000000D0617047000000100240044A002994
:101BA000116914BF084321EA00001061704700006A
:101BB00000100240044A0029916914BF084321EA39
:101BC0000000906170470000001002400248416A26
:101BD00041F08071416270470010024026494B6815
:101BE000264A13F00C0318BF042B01D0082B01D098
:101BF000026015E04A684B6802F470124FF0020C64
:101C00000CEB924213F4803F03D04B6813F4003F77
:101C100003D01B4B5A43026002E0184B5A43026048
:101C20004A6802F0F0021309164AD35CD0F800C0EB
:101C30002CFA03F34360D1F804C00CF4E06C4FEAD3
:101C40001C2C12F80CC023FA0CFCC0F808C0D1F808
:101C500004C00CF4605C4FEADC2C12F80C2023FA70
:101C600002F2C2604968084B01F44041890B595C9B
:101C7000B2FBF1F1016170470010024000127A00DE
:101C800000093D00E4000020E0000020002243099C
:101C90000949012B08BF096803D0022B0CBF096A50
:101CA000496A00F01F00012303FA00F0084218BF40
:101CB00001221046704700000010024003494A68A4
:101CC00022F4E062104348607047000000100240B8
:101CD0007047704770470000184810B58188491C4C
:101CE00009B28180042904DD00218180FFF736FDDF
:101CF00011E0144C12492046FFF7E0FD124920463E
:101D0000FFF7DFFD012251022046FFF751FE0121BE
:101D10002046FFF726FE0D480178491C01700C484B
:101D2000FEF753FE0B490A88904234BF501E501CE8
:101D30000880BDE8104000F079B900005000002094
:101D400000070010005800400B4700031A00002055
:101D5000002401401C0000202F48016841F00101CF
:101D6000016041682D4A11404160016821F4102151
:101D700021F080710160016821F4802101604268D6
:101D80004FF41F0122F4FE024260816002680021CC
:101D900042F4803202600268491C12F4003F02D112
:101DA000B1F5A06FF7D1016811F4003F2FD01C49A5
:101DB0000A6842F010020A600A6822F003020A6010
:101DC0000A6842F001020A6041684160416841606E
:101DD00041684160416821F47C114160416841F4EF
:101DE000F8114160016841F080710160016811F0F3
:101DF000007FFBD0416821F003014160416841F060
:101E000002014160416801F00C010829FAD105493D
:101E10004FF0006008607047001002400000FFF8BB
:101E20000020024008ED00E0704770477047000056
:101E300030B587B04FF6FF70ADF814000520ADF84F
:101E400010000024134DADF81640ADF8124004A95F
:101E5000284600F09DF8ADF800400120ADF80200E2
:101E600040F2DC50ADF80600ADF80840694628465F
:101E700000F044F80021284600F082F801220221F7
:101E8000284600F033F80121284600F024F807B076
:101E900030BD00000004004010B50B4C022120466C
:101EA00000F016F80948007800281CBF0220FFF750
:101EB00051FE204600F018F800F2DC5081B22046B6
:101EC000BDE8104000F062B8000400401800002097
:101ED000C943018270470029018814BF41F0010104
:101EE00021F0010101807047808E7047002A8289AD
:101EF00014BF114322EA01018181704770B4028C42
:101F000022F001020284028C8388B0F818C00D8888
:101F10000C892CF0730C22F002024E8845EA0C0C5E
:101F200022433243A0F18045B5F596351CBFA0F1A0
:101F30008044B4F59A340DD0A0F18044B4F5A034B7
:101F40001FBFA0F18044B4F5A234A0F18044B4F5E1
:101F5000A4340DD14C8922F0080222438C8822F04F
:101F6000040222438D8923F44073CC892B432343FD
:101F70008380A0F818C0C9888186028470BC70472D
:101F8000028B22F00802114301837047818670475B
:101F900010B40288234BDFF890C0984218BF604508
:101FA00011D0B0F1804F1CBFA0F18044B4F5806423
:101FB00009D0A0F18044B4F500641CBFA0F18044B6
:101FC000B4F5406403D14C8822F070022243A0F1A2
:101FD0008044B4F580541CBFA0F18044B4F5A054F3
:101FE00003D0CC8822F44072224302808A8898422F
:101FF00082850A88028518BF60450DD0A0F1804215
:10200000B2F5A0321FBFA0F18042B2F5A232A0F11A
:102010008042B2F5A43201D1097A01860121818280
:1020200010BC7047002C0140003401400448816915
:10203000002908BF70478169491E8161704700000F
:102040001800002070B5174D40F22771284600F0A7
:102050006BF8B8B11448154C0068E178415C28462B
:1020600000F024F9E0781249401CC0B2E070097811
:10207000884207D1002240F22771284600F07BF801
:102080000020E07040F22551284600F04DF800286D
:1020900008BF70BD284600F005F9BDE87040C0B229
:1020A000FFF792BA00380140DC0000205000002009
:1020B000D900002010B5044800F0F4F8BDE8104045
:1020C000C0B200F05FBC00000044004000298189DC
:1020D00014BF41F4005121F4005181817047000088
:1020E00010B584B04FF4164000900020ADF8040005
:1020F000ADF80600ADF80800ADF80C000C20094C56
:10210000ADF80A006946204600F04EF8012240F280
:102110002551204600F02FF801212046FFF7D6FF79
:1021200004B010BD0038014010B401F01F020124BA
:102130000023C1F3421C04FA02F2BCF1010F04BFF8
:10214000B0F80CC00CEA020208D0BCF1020F0CBFC0
:10215000B0F810C0B0F814C00CEA0202090A0088F6
:1021600004FA01F1002A00EA01001CBF0028012343
:10217000184610BC7047C1F3421301F01F014FF025
:10218000010C0CFA01F1012B08BF0C3003D0022B1B
:102190000CBF10301430002A026814BF114322EA29
:1021A000010101607047000030B50446008A85B027
:1021B0000D464CF6FF710840E98808432082A0894B
:1021C0004EF6F3110840A9882A8911436A89104301
:1021D0000843A081A08A4FF6FF410840A98908431F
:1021E000A0826846FFF7FAFCA4F18040B0F59C306D
:1021F0000CBF03980298A18911F4004F00EBC001B5
:1022000001EB0010296814BF49008900B0FBF1F010
:10221000114A6FF0180CA2FB0031490909010B09A2
:1022200003FB0CF3B4F80CC000EB830032231CF466
:10223000004F14BF03EBC00003EB0010A2FB002013
:102240004FEA501014BF00F0070000F00F000843E1
:10225000208105B030BD00001F85EB5110B584B062
:102260004FF4164000900020ADF80400ADF80600D1
:10227000ADF80800ADF80C000420094CADF80A00D8
:1022800069462046FFF790FF012240F22551204683
:10229000FFF771FF01212046FFF718FF04B010BDC2
:1022A000004400408088C0F308007047C1F3080173
:1022B000818070477047FEE702E008C8121F08C11E
:1022C000002AFAD170477047002001E001C1121FB7
:1022D000002AFBD1704700002DE9F041294A2B4D1F
:1022E00052F82120C0EBC2072748294A00EB81069B
:1022F00040F821702B7851423069022B18BF00241E
:1023000008D13C188C42C8BF44F6206402DCA242CB
:10231000C8BF14463461B068381A68609042B8BFCC
:102320006A6002DB8142B8BF69606868FEF775F9D0
:10233000A969FDF777FF80462046FEF76EF96969C7
:10234000FDF770FF04463846FEF767F92969FDF787
:1023500069FF2146FDF70EFF4146FDF70BFFFEF733
:1023600088F942F21071B0618842C8BF42F2107021
:102370000849B0618842D8BF0846B760B061BDE87F
:10238000F081000038010020980000206C0000203F
:10239000E0B1FFFFF0D8FFFF82B0FFF7DDFC4FF4A4
:1023A0008060FFF78BFC4FF48040FFF7E1FB0121D9
:1023B0000D20FFF7FFFB01210220FFF7E3FB0121C6
:1023C0004802FFF7F7FB01214805FFF7DBFB01217E
:1023D0008805FFF7D7FB01218803FFF7EBFB0121FD
:1023E0004804FFF7CFFB4FF44070FFF78FFB1F202F
:1023F0008DF8000001248DF801408DF802408DF821
:1024000003406846FFF74DFB21208DF800008DF852
:1024100001408DF802408DF803406846FFF741FB0C
:102420001D208DF8000003258DF801508DF8024025
:102430008DF803406846FFF734FB25208DF8000037
:102440008DF8015002208DF802008DF80340684697
:10245000FFF727FB26208DF800008DF801508DF83E
:1024600002508DF803406846FFF71BFB4FF0E02455
:10247000202084F8230DFEF703FEFEF7C3FDFEF7D0
:10248000A5FBFEF79BFD00F0F3FA68484FF47A7164
:102490000068B0FBF1F0B0F1807F62D220F07F40A5
:1024A000401E6061F02084F8230D4FF0000BC4F84B
:1024B00018B007202061FFF713FEFFF7CFFEFFF7EC
:1024C0004DF9FEF737FAFFF7B3FCFFF707FA7B2069
:1024D000FFF7DCFBDFF85891564C012842D0012071
:1024E000FFF72CFB0020FFF729FB0125608804285B
:1024F000FCD9A4F802B006224D491D2000F09CFB37
:10250000B9F80000E38940BAC01AB9F80210B9F866
:10251000042000B22081238A49BAC91A09B2618114
:10252000638A52BAD21A12B2A281A38A13F0010F9F
:102530001CBF40422081A08A10F0020F1CBF4842FD
:102540006081A08A10F0040F1CBF5042A08100F0EF
:1025500077F8FEF75DFEA088E188884238BF2570D5
:10256000C4E7FEE7FFF732FB40F6B830A061A06990
:102570000028FCD1304DE98842F2FC1081423CBF7A
:10258000A988814212D20120FFF7D8FA42F22830FE
:10259000A9888142FCD3C8202646A061B0690028E2
:1025A000FCD10120FFF7BEFAFEF7B0FA002637464D
:1025B000B04635464FF0140A06221D491D2000F092
:1025C0003BFB99F8000099F80110000200B20843A3
:1025D000064499F8020099F80310000200B208437B
:1025E000074499F8040099F80510000200B2084366
:1025F0008044C4F818A0A0690028FCD16D1C642D8B
:10260000DADB0E4981FB06204211A2EBE070E0818B
:1026100081FB07204211A2EBE070208281FB0810B1
:102620004111A1EBE07060825CE70000F400002043
:102630002C01002018000020080100201F85EB510C
:102640002DE9F047694DE888694EF168401AFDF7B9
:10265000F2FF0022674BFDF771FFFEF737F8664C7B
:10266000E06029887068401A606068883168401AA4
:102670002060A888B168401AA06060480021B0F9C5
:102680000000FFF729FE5E480121B0F90000FFF7C6
:1026900023FE5C48A1685C4EB0F9000000EB8107A6
:1026A00037607068381AFDF7B8FFA6F15404A16AC4
:1026B000FDF7B8FD8046B068FDF7AFFF616AFDF732
:1026C000B1FD81463846FDF7A8FF216AFDF7AAFD56
:1026D0004946FDF74FFD4146FDF79EFDFDF7C9FF59
:1026E0007760F060E888FDF7B7FF484FDFF820819A
:1026F0003A464346FDF7B1FE06468A46A068FDF716
:102700009AFFDFF810914FF066324B46FDF7A5FEB9
:1027100032465346FDF7FCFDFDF7D8FF0646A060A4
:102720006889FDF799FF3A464346FDF796FE07464E
:102730000D46E068FDF77FFF4FF066324B46FDF730
:102740008CFE3A462B46FDF7E3FDFDF7BFFFE06048
:10275000024694F800C000202F494FF0010842F2D1
:10276000283342F2FC15BCF1000F13D043F2D4071A
:10277000BCF1010F1BD0BCF1020F18BFBDE8F08700
:1027800000F04CF8E068B842BCBFA068A8420ADB81
:10279000BDE8F0870870C870487088709A42CCBF56
:1027A000B542BDE8F08784F80080BDE8F08794F872
:1027B00001C081F800C094F801C081F803C094F80A
:1027C00001C081F801C094F801C081F802C09342B1
:1027D000C4BF2070BDE8F0879742BDBFAE42022063
:1027E0002070BDE8F087BDE8F087000008010020F8
:1027F0001C0100200000F83F3801002020000020CC
:102800002200002024000020C0000020A0999999F7
:102810009999A93F6666EE3F110000202DE9F0016D
:102820005448554F554BC56807F12800BC69C66828
:10283000291B881983FB00108110A1EBE071A7F11F
:102840002C004F4AC16192F800C08C4507DCA1EB17
:102850000C08B8F1140FC8BF0CF1140106E0ACEB82
:102860000108B8F1140FC8BFACF11401C16190F8B0
:1028700001804FF0FF0C4145BCBF4178117004DB73
:10288000FF29CCBF82F800C011702919314483FBA5
:1028900001418C10A4EBE171C161D4788C4207DC5A
:1028A000A1EB0408B8F1140FC8BF04F1140106E04D
:1028B000A4EB0108B8F1140FC8BFA4F11401C16161
:1028C0004478A142BCBF4178D17004DBFF29CCBF62
:1028D00082F803C0D170FF69E91B891B83FB0141AA
:1028E0008C10A4EBE171C16154788C4207DCA1EB40
:1028F0000408B8F1140FC8BF04F1140106E0A4EBFA
:102900000108B8F1140FC8BFA4F11401C1614478E3
:10291000A142BCBF4178517004DBFF29CCBF82F8D3
:1029200001C05170E919891B83FB01318B10A3EBA6
:10293000E171C16193788B4205DCCC1A142CC8BFBD
:1029400003F1140104E05C1A142CC8BFA3F11401B4
:10295000C16143789942BFBF40789070BDE8F001F3
:102960007047FF29CCBF82F802C09170BDE8F0012A
:10297000704700003801002098000020ABAAAA2A66
:102980001100002000233349FF2801BF4A78FF2AA5
:102990000B708B7008BF7047F0B42E4A91F800C0DE
:1029A00094780832BCF1000F1DD0CD78AC451FD90A
:1029B0006FEA040C0CF0FF0C81F802C0BCF1FF0FB1
:1029C00004BF4FF0FE0C81F802C00CF0FF0C604514
:1029D0003CD1214C92F800C06578E6782779BCF1AB
:1029E0001F0F15D10EE01F280CBF05230423CB7049
:1029F00002F80C0022188A700CF101020A7048706B
:102A0000F0BC7047154C2570154C2670154C27707E
:102A10000CF0F004102C19D10CF00F040A2C15D274
:102A2000DFF844C08CF8015092788CF800208CF8C4
:102A300003600E4D8CF80270BCF8002025F81420BD
:102A4000621CD4B2BCF8022025F814200B708B70E5
:102A5000D5E700005C000020640000204F0000204B
:102A6000100000204E00002060000020080100201F
:102A7000F8B5624C45F25550211DFEF7A9F942F612
:102A80003335002818BF65605C4946F26660FEF782
:102A90009FF9002818BF256004F1080147F27770FC
:102AA000FEF796F9002818BFA56004F10C0148F65E
:102AB0008800FEF78DF900281CBF42F26C00E06030
:102AC000694649F69910FEF783F94D4C4D4E0028A2
:102AD00018BF4D4852D02060694644F24440FEF78A
:102AE00077F94A4D0024002818BF2C604ED0694663
:102AF00043F23330FEF76CF9454D002818BF2C60C7
:102B00004DD0694642F22220FEF762F9414D00287D
:102B100018BF41484CD02860694641F21110FEF7B9
:102B200057F93E4D002818BF2C6049D0694641F244
:102B30003420FEF74DF93A4D002818BF2C6048D0DC
:102B4000694644F22130FEF743F9364D002818BF9C
:102B500040F2AE7046D0E880334941F22210FEF7D1
:102B600037F910B130491E20087030494AF6AA20C2
:102B7000FEF72EF9002818BFAC82F8BDBDF80000A2
:102B8000FDF754FD3146FDF783FBA4E7BDF80000D7
:102B9000FDF74CFD3146FDF77BFB2860A7E7BDF84C
:102BA0000000FDF743FD3146FDF772FB2860A8E702
:102BB000BDF80000FDF73AFD3146FDF769FBAAE7D5
:102BC000BDF80000FDF732FD3146FDF761FB2860DE
:102BD000ACE7BDF80000FDF729FD3146FDF758FBD5
:102BE0002860ADE7BDF80000FDF736FD104A114B37
:102BF000FDF733FCFDF789FDADE700001C01002067
:102C00007C00002000007F4323DBF93D8000002092
:102C1000840000208C000020CDCC4C3D9000002092
:102C200094000020180000206D0000202C000020DF
:102C3000AE47E17A142E26402DE9F047364F804604
:102C40000E4615464FF400313846FEF79CFE00282C
:102C5000F8D101213846FEF784FE304C3846214633
:102C6000FEF71FFE0028F9D00022D0213846FEF7DB
:102C70000CFFDFF8AC9038464946FEF712FE0028FC
:102C8000F9D041463846FEF708FFDFF8988038460D
:102C90004146FEF706FE0028F9D001213846FEF72E
:102CA00060FE21463846FEF7FCFD0028F9D00122DF
:102CB000D0213C463846FEF7E8FE1B4F20463946F9
:102CC000FEF7EFFD0028F9D0002D18BF174F1CD0DC
:102CD000012D07D100212046FEF7DAFD0121204613
:102CE000FEF748FE39462046FEF7DBFD58B1022DBF
:102CF00003D100212046FEF7CBFD2046FEF7C2FEA1
:102D000006F8010B6D1E002DE2D12046BDE8F0470C
:102D10000121FEF7BDBD000000540040010003008A
:102D20008200070084000700020003004000030047
:102D30001000200020000000582D00080000002096
:102D400008010000B8220008602E000808010020D9
:102D5000C0040000C8220008000000000008014074
:102D600000080140000C01400000000000000000CD
:102D7000000000001027000000000000000000001C
:102D800000000000000000000000000055556666CD
:102D90007777888899994444333322221111341269
:102DA00021432211AAAA00001B0800000000000015
:102DB0000000000000000000000000000000000013
:102DC0000000000000000000000000000000000003
:102DD00000000000000000000000000000000000F3
:102DE00000000000000000000000000000000000E3
:102DF000DB170000DB1700000000000000000000EF
:102E000000000000000000000000000000000000C2
:102E10000000000000000000C0760000000000007C
:102E200000000000000000000000000000000000A2
:102E3000000000000000000002040608000000007E
:102E400001020304010203040607080900512502D8
:102E5000000000000000000001020304060708094A
:04000005080000ED02
:00000001FF
