:020000040800F2
:10000000F805002001010008751500083B110008E3
:1000100073150008350A00083F1D000800000000A5
:100020000000000000000000000000006917000848
:10003000F50A000800000000F51500086D1700081B
:100040001B0100081B0100081B01000867170008BE
:100050001B0100081B0100081B0100081B01000810
:100060001B0100081B0100081B0100081B01000800
:100070001B0100081B0100081B0100081B010008F0
:100080001B0100081B0100081D0800081B010008D7
:100090003D1D00081B0100081B0100081B01000892
:1000A0001B0100081B010008BF180008BD1800084C
:1000B000C11800082D1900081B0100084D11000887
:1000C0003D110008891200081B0100081B010008EF
:1000D0001B010008D91A0008391B00081B01000881
:1000E0001B010008651700081B010008DFF80CD091
:1000F00000F054FB00480047351E0008F8050020BA
:100100000648804706480047FEE7FEE7FEE7FEE7B1
:10011000FEE7FEE7FEE7FEE7FEE7FEE7ED17000875
:10012000ED000008F0B480EA0102D20F4300B3EB07
:10013000410F02D20346084619464B0042D0C30D78
:10014000DDB2C1F3C7542C1B202C35DAC1F31601E4
:1001500041F4000502B16D42C4F1200605FA06F132
:1001600025412844B3EBD05F23D0C2B1012CA0EBD2
:10017000C35009DCF0BC4FF0004202EAC35200F564
:100180000000DBB200F07ABA400000F1807000EBB2
:10019000C350A0F1807040EAD170490009E04908DD
:1001A00041EAC071A0EBC35000F50000400800EB2D
:1001B000C350F0BC00F059BA5142012303EB410196
:1001C000801AF6E7F0BC704781F00041AAE780F0A2
:1001D0000040A7E780EA010210B502F000424000AB
:1001E00026D04B0023D04FEA106101EB1361C0F31E
:1001F0005600C3F3560340F4000043F40003A0FB91
:100200000330A1F17F014FEA00401C0401D000F14E
:10021000010050EA134001D44000491EC3B20C064D
:1002200004EBD010401C4008802B02D003E00020DB
:1002300010BD20F00100002900DA0020104310BD9D
:100240002DE9FE4F074681EA0300C00F0E460190DC
:1002500021F0004123F00044B81AA14105D23846EC
:10026000314617461E460B46024623F00040104317
:1002700004D13846314603B0BDE8F08F350DC5F3E3
:100280000A00C3F30A510290401A0090402867DA2E
:10029000C3F3130040F4801B0198924620B1002361
:1002A000D2EB030A63EB0B0B00985946C0F14002F6
:1002B000504600F0A9F980460C4650465946009A2F
:1002C00000F0C1F9C0197141EF1785EA11533B43A2
:1002D0003FD0019A4AB3009A012A11DC0022801A09
:1002E00061EB05514FF0004303EA0555CDE90025C8
:1002F000801841F580114246234600F0FBF9BAE729
:100300002E050025401B61EB0601401941F58012C6
:10031000001852412818A6F5001343EB020140EAE9
:10032000D47018EB0808644113E064084FEA3808F9
:100330004FF0000244EAC0744FEA0553801A61EBA3
:100340000301801841F5801149084FEA30008018F8
:1003500059414246234603B0BDE8F04F00F0BDB915
:100360000198012240000023D0EB020263EBE0730E
:1003700001984FEAE074381A66EB0401EBE783F06A
:1003800000435DE781F000415AE72DE9FE4F81EA25
:10039000030421F0004504F0004423F000414FF035
:1003A000000A009450EA050302D052EA010304D186
:1003B0000020014603B0BDE8F08FC1F30A53C5F336
:1003C0000A542344A3F2F3330193A0FB02B3C5F311
:1003D000130545F4801CC1F3130141F480180CFB94
:1003E000023300FB083E810A930A41EA8C5143EA3A
:1003F0008853A1FB03474FEA9C2505FB03734FEA93
:10040000982601FB06373D05260545EA1435BBEB6A
:1004100006016EEB0503850E920E45EA8C1542EA45
:100420008812A5FB0206261E67EB00070C0D44EAA6
:100430000334A61947EB1350C1F313044FF0000324
:100440001946E5FB02014FEA033545EA1455019BC5
:100450004FEA0432009CA3F10C03CDE900A445EA65
:10046000060502932B4600F045F9A3E72DE9F04D70
:1004700081EA030404F0004B21F0004714464FF0DA
:10048000000A23F0004150EA070220D054EA01029A
:100490001DD0C1F30A550246C1F31300C7F30A5633
:1004A000C7F3130340F4801143F48013A6EB05084F
:1004B000101BD64608F2FD3873EB010002D308F199
:1004C000010801E092185B41B8F1000F03DA002047
:1004D0000146BDE8F08D00204FF480150646074622
:1004E0000EE0B2EB040C73EB010C04D3121B0643B9
:1004F00063EB01032F436D084FEA300092185B4114
:1005000050EA050CEDD152EA030012D082EA040051
:1005100083EA0105284303D100224FF0004308E09D
:10052000101B8B4102D20122002302E06FF0010276
:1005300053101AEB060047EB085110EB0A0041EB91
:100540000B01BDE8F04D00F0C8B8C10F80EAE070C3
:100550000844CA079623002100F090B80EB5C10FD9
:1005600080EAE0700844CA07002140F233438DE876
:100570000E000A460B4600F0BDF803B000BD0EB5F4
:10058000002240F23343CDE9002202931346114684
:1005900000F0B0F803B000BD00F0004220F00040D1
:1005A000C10DC0F3160040F400007F2901DA0020DD
:1005B0007047962903DCC1F19601C84001E09639E5
:1005C0008840002AF4D04042704770B5C1F30A5207
:1005D00001F000450024C1F3130140F2FF3341F460
:1005E00080119A4201DA002070BD40F233439A42F2
:1005F000A2F2334203DC524200F015F800E09040D2
:100600002C43F1D0404270BD202A04DB203A00FA8E
:1006100002F1002070479140C2F1200320FA03F359
:10062000194390407047202A04DB203A21FA02F057
:100630000021704721FA02F3D040C2F1200291401C
:10064000084319467047202A06DBCB17203A41FAA7
:1006500002F043EAE07306E041FA02F3D040C2F14F
:10066000200291400843194670470029A8BF7047EF
:10067000401C490008BF20F00100704710B4B0FAD8
:1006800080FC00FA0CF050EA010404BF10BC704773
:1006900049B1CCF1200421FA04F411FA0CF118BF8D
:1006A000012121430843A3EB0C01CB1D4FEA00615C
:1006B0004FEA102048BF0020BCBF10BC704700EBC1
:1006C000C35010440029A4BF10BC7047401C49000F
:1006D00008BF20F0010010BC704710B5002B08DAED
:1006E000401C41F1000192185B411A4301D120F0F6
:1006F000010010BD2DE9FF4D934611B1B1FA81F211
:1007000002E0B0FA80F220329246FFF77DFF039AB2
:100710000746884640EA0B0011435B46084304D174
:100720003846414604B0BDE8F08D114653EA020058
:1007300016D0CAF140025846FFF775FF04460D4631
:100740004FF00106584652460399FFF75DFF0843F4
:1007500000D10026344345EAE675274345EA0808F8
:100760000E984FF00005A0EB0A014FEAD7200A319E
:100770004FEA47532A4640EA48504FEAD82402D568
:1007800000200146CEE7281844EB0151DDE90C4575
:10079000001904B06941BDE8F04D9EE7064C074DD5
:1007A00006E0E06840F0010394E807009847103441
:1007B000AC42F6D3FFF79EFC14260008342600084E
:1007C00070B501EB020410F8015B15F0070301D1CD
:1007D00010F8013B2A1106D110F8012B03E010F8A4
:1007E000016B01F8016B5B1EF9D12B0705D40023C7
:1007F000521E0FD401F8013BFAE710F8013B02F159
:100800000202A1EB030303E013F8015B01F8015BB3
:10081000521EF9D5A142D6D3002070BD10B50E4CA2
:100820004FF49061204600F069F820B14FF49061D8
:10083000204600F04BF8094C4FF49061204600F040
:100840005DF8002808BF10BD4FF490612046BDE858
:10085000104000F03BB80000002401400028014097
:1008600010B586B000224FF460200121CDE90202CC
:100870008DF80420144C8DF805108DF8101000929E
:100880006946204600F052F80121204600F022F887
:10089000072301220921204600F06EF8204600F0CF
:1008A000B6F8204600F03AF80028FAD1204600F0C9
:1008B000BCF8204600F017F80028FAD101212046A4
:1008C00000F0AAF806B010BD002401406FEA112123
:1008D000016070470029816814BF41F0010121F0D7
:1008E00001018160704701460020896811F0040F02
:1008F00018BF01207047C06C80B2704710B400224E
:10090000D0F804C00B0ACCB201680CEA040019420A
:100910001CBF00280122104610BC70470146002071
:10092000896811F0080F18BF0120704710B44268A1
:1009300091F804C022F4807222F470220B6842EA1B
:100940000C221A43426082680A4B4C791A40D1E962
:1009500002C342EA440243EA0C031A438260C26AB9
:10096000097C22F47002491EC9B242EA0151C162F7
:1009700010BC7047FDF7F1FF30B44FF0070C0929A8
:100980000DD9C568A1F10A0404EB44040CFA04FC77
:1009900025EA0C0CA3404CEA0303C3600AE0046997
:1009A00001EB41050CFA05FC24EA0C0CAB404CEAC7
:1009B000030303611F23072A0CD2D0F834C0521E50
:1009C00002EB820293402CEA0303914019434163F6
:1009D00030BC70470D2A0DD2D0F830C0D21F02EBC8
:1009E000820403FA04F22CEA0202A14011430163DB
:1009F00030BC7047D0F82CC00D3A02EB8202934015
:100A00002CEA030391401943C16230BC70478168EE
:100A100041F00801816070470029816814BF41F4EA
:100A2000A00121F4A00181607047816841F00401B8
:100A300081607047FEE700002DE9F0414FF0000CA7
:100A4000284A29486446654666466346142700BF1F
:100A5000B2F800805188C444B2F804800C44D188B4
:100A600045440E44476141690029FCD15B1C642B5D
:100A7000EEDB1E481E4F80FB0C214A11A2EBE171F8
:100A8000796080FB04214A11A2EBE171396080FB9F
:100A900005214A11A2EBE171B96080FB06104111FA
:100AA000A1EBE070F86000F043FA786881B245F29B
:100AB000555000F09DF9386881B246F2666000F04A
:100AC00097F9B86881B247F2777000F091F9F86849
:100AD00081B248F6880000F08BF9BDE8F04100F0E3
:100AE00003BA0000B8010020E80000201F85EB5188
:100AF000CC010020704700002DE9F0477B4E002418
:100B0000651E3288B6F80004DFF8E481290C794FBD
:100B1000DFF8E491002A7AD0A2F56E42EE3A38D09E
:100B2000A2F58851113905D0304600F0BDF90428EE
:100B30006ED1CBE098B1A0F56E41EE39304616D1BA
:100B400000F0B2F9042818BFBDE8F0870021404644
:100B500000F0D2F9042818BFBDE8F087C3E03046A2
:100B600000F0A2F9042818BFBDE8F087BBE000F050
:100B70009BF9042808D10021304600F0BDF9042873
:100B800004BF404600F090F9042818BFBDE8F08784
:100B9000A9E088B188423CD1404600F085F904289C
:100BA00018BFBDE8F0870021304600F0A5F9042801
:100BB00018BFBDE8F08796E0F18837F8140081424D
:100BC00008BF25B2AC420ED04B4900F097F801287F
:100BD00009D037F81400B9F8001000F0D3F8042851
:100BE00018BFBDE8F087601C84B2042CE4D3002158
:100BF000304600F081F9042818BFBDE8F087404670
:100C000000F052F9042818BFBDE8F0876BE013E04C
:100C100065E0304600F048F9042808D1002130464C
:100C200000F06AF9042804BF404600F03DF90428AA
:100C300018BFBDE8F08756E048B188421AD1404657
:100C400000F032F9042818BFBDE8F0874BE03046C9
:100C500000F02AF9042808D10021304600F04CF9B0
:100C6000042804BF404600F01FF9042818BFBDE85F
:100C7000F08738E0B6F8061437F81400814208BF50
:100C800025B2AC420ED01C4900F038F8012809D03A
:100C900037F81400B9F8001000F074F8042818BFF1
:100CA000BDE8F087601C84B2042CE3D300214046E9
:100CB00000F022F9042818BFBDE8F087304600F0A4
:100CC000F3F8042818BFBDE8F0870CE00021304697
:100CD00000F012F9042804BF404600F0E5F80428AB
:100CE00018BFBDE8F0870420BDE8F08700000108C8
:100CF00000040108020100200000002070B41F4A17
:100D0000002301251488B2F800C42E4634B1BCF18A
:100D1000000F0FBF3346AB2070BC704702EB832C33
:100D2000BCF1004F164A02EB832238BFB2F1004FEC
:100D30000AD30CF1020C62451DD91388834216D0E8
:100D4000121F6245F9D816E00124ACEB02035B1ECA
:100D50004FEAE37C03EB9C73A6EBA303A3420ADDFB
:100D6000B2F800C084451CBF121F641CF6D132F8D3
:100D7000020C00250880284670BC7047000001085E
:100D8000FE03010870B5184A0E460546118800207A
:100D9000B2F8003401244EF6EE6CABB100291CBF52
:100DA000AB2070BD634500D12046104902EB802482
:100DB00001EB80218C4205D22068401C07D0241D05
:100DC000A142F9D8802070BD6145EED0ECE73146F4
:100DD000204600F091F8042818BF70BD2946A01CD9
:100DE000BDE8704000F088B800000108FE0301086B
:100DF0002DE9F04780460D46FFF7C4FF802818BF55
:100E0000BDE8F087244E002437463188B6F8002428
:100E10002248002908BF064605D0002A0EBF074613
:100E2000AB20BDE8F0874EF6EE61304600F064F886
:100E3000042818BFBDE8F08729464046FFF7A2FF07
:100E4000042806BF164DDFF85C90BDE8F08700BFB0
:100E500035F8140040450ED01249FFF74FFF012826
:100E600009D035F81400B9F80010FFF78BFF0428FB
:100E700018BFBDE8F087601C84B2042CE8D3384664
:100E800000F012F8042818BFBDE8F08700213046B2
:100E9000BDE8F04700F030B8000001080004010888
:100EA000020100200000002030B505464FF430203C
:100EB00000F04AF8042818BF30BD0A4C206940F001
:100EC000020020616561206940F0400020614FF41C
:100ED000302000F039F8216941F6FD72114021619E
:100EE00030BD0000002002400248016941F080014D
:100EF000016170470020024070B505460E464FF470
:100F0000005000F021F8042818BF70BD074C20697C
:100F100040F0010020612E804FF4005000F014F8E2
:100F2000216941F6FE721140216170BD002002402E
:100F30000348024941600349416070472301674506
:100F400000200240AB89EFCD174A01460420D36848
:100F500013F0010F08D0A9B1D368042013F0010FDA
:100F600018BF01201BD10FE0D36813F0040F18BF86
:100F7000022004D1D26812F0100F18BF03200029FC
:100F800018BF704705207047D36813F0040F18BFCF
:100F9000022004D1D36813F0100F18BF0320491E9C
:100FA0000128D8D0EBE7000000200240F8B510255A
:100FB000ADF80050344F8DF8035003248DF80240F3
:100FC0006946384600F064F82026ADF800606946AE
:100FD000384600F05DF8ADF800602C4E8DF80350F7
:100FE0008DF802406946304600F052F80225ADF80F
:100FF000005000208DF803008DF80240694630460D
:1010000000F046F82802ADF800008DF802501820D4
:101010008DF803006946384600F03AF84FF48160D5
:10102000ADF8000004208DF803006946384600F052
:101030002FF8C020ADF800008DF802401C258DF877
:1010400003506946304600F023F8A002ADF80000D6
:101050008DF802408DF803506946304600F018F8CC
:101060000121480500F004FB00214FF4001000F0BE
:10107000FFFA0121880500F0FBFA00214FF48000FF
:1010800000F0F6FAF8BD000000080140000C014035
:101090002DE9F001CB78002213F0100F03F00F0CB4
:1010A0001CBF8B7843EA0C0C0B880F26012513F02C
:1010B000FF0F18BF046819D00F8805FA02F31F400C
:1010C0009F420FD1970006FA07F824EA08040CFAA9
:1010D00007F73C43CF78282F08BF436102D0482F41
:1010E00008BF0361521C082AE6D304600A88FF2A5D
:1010F00087BF44680022BDE8F001704702F1080391
:101100000F8805FA03F31F409F420FD1970006FA9C
:1011100007F824EA08040CFA07F73C43CF78282F95
:1011200008BF4361CF78482F08BF0361521C082ACB
:10113000E4D34460BDE8F0017047FEE702488178DF
:10114000491C8170704700000C01002070B5344DBF
:10115000284600F090F96FF44031324C40180ED020
:10116000012827D0A0F5802081381DD0022818BF83
:1011700070BD01212846BDE8704000F05CB9E07800
:1011800038B10122D021284600F0E9F90020E070B2
:1011900070BD0022D021284600F0E1F9E078401C23
:1011A000E0702148A06070BD21782846BDE87040FD
:1011B00000F0DDB900224FF4C061284600F062F96A
:1011C000A078002818BF194E24D0C0B2012807D13A
:1011D0000021284600F0C6F80121284600F034F925
:1011E0003146284600F0C7F888B1A078022803D11C
:1011F0000021284600F0B6F8284600F0ADF9014677
:10120000A06800F8011BA060A078401EA070A07824
:101210000028DAD12846BDE87040012100F0A2B8CC
:10122000005400400C010020DC01002040000300BD
:1012300010B5134C84B0204600F0E0F80020ADF863
:1012400004004BF6FF70ADF806004020ADF8080032
:101250000001ADF80A000001ADF80C00094800904B
:101260000121204600F09AF86946204600F012F964
:1012700001225102204600F005F904B010BD000023
:1012800000580040F049020010B5334C204600F0F1
:10129000F2F86FF440314118304812D0A1F58021A6
:1012A000813935D0022918BF10BD0121204600F038
:1012B000CBF82046BDE8104000224FF4007100F04A
:1012C000E1B8B0F9040001280DD0022812D003289B
:1012D00017D0042818BF10BD00222046BDE81040DA
:1012E000582100F03CB920460022BDE810405221B0
:1012F00000F035B920460022BDE81040542100F02E
:101300002EB920460022BDE81040562100F027B932
:10131000B0F90400124901280CD0022810D003288B
:1013200014D0042818BF10BD49782046BDE81040ED
:1013300000F01DB909782046BDE8104000F017B94B
:1013400089782046BDE8104000F011B9C9782046E0
:10135000BDE8104000F00BB9005800400C0100201F
:10136000E40000200029018814BF41F4806121F4C9
:10137000806101807047838A0022008B43EA00402D
:1013800020F07F4031EA000008BF0122104670477C
:10139000C94381827047C94381827047002901880F
:1013A00014BF41F0010121F00101018070470000EC
:1013B00010B5114C84B0204600F020F80020ADF8A4
:1013C00004004BF6FF70ADF806004020ADF80800B1
:1013D0000001ADF80A000001ADF80C0049F64040EC
:1013E000009001212046FFF7D9FF6946204600F012
:1013F00051F804B010BD000000540040A0F180413D
:1014000010B5B1F5A8414FF0010109D1480500F030
:101410002FF9BDE8104000214FF4001000F028B96A
:101420004FF4800000F024F9BDE8104000214FF493
:10143000800000F01DB90029018814BF41F48071BB
:1014400021F48071018070470029018814BF41F4A4
:10145000007121F400710180704700220B0F21F010
:101460007F4112BF1430090C18300068084218BFC1
:10147000012210467047818A008B41EA004020F02B
:101480007F407047002A828814BF114322EA01017D
:101490008180704770B50446808886B00D4620F084
:1014A0003F06684600F0FCF829490298B0FBF1F1CC
:1014B00089B246EA0102A280228822F0010222803B
:1014C000244B2A689A4209D85200B0FBF2F080B24D
:1014D000042838BF0420491C218424E0EB88A3F5AC
:1014E0003F4CBCF1FF0C05D102EB4202B0FBF2F025
:1014F00080B208E002EBC20303EB0212B0FBF2F091
:1015000080B240F480400205120D08BF40F0010097
:1015100040F400404FF4967251434FF47A72B1FB9D
:10152000F2F1491C2184A083208840F00100208032
:101530002088A9886A8920F00A0020F4806011437D
:1015400008432080A88929890843208106B070BDFE
:1015500040420F00A0860100008AC0B27047002AF6
:1015600014BF41F0010101F0FE01018270470182C8
:101570007047FEE7704770B4C37802780F244FF0CD
:10158000E0214FF0010C03B3D1F80C3D867803F451
:10159000E063C3F5E0631B0AC3F1040524FA03F317
:1015A00044781E4004FA05F333430A441B0182F8D1
:1015B00000340078420900F01F0001EB82010CFAB0
:1015C00000F0C1F8000170BC704702F01F000CFA77
:1015D00000F0520901EB8201C1F8800170BC704734
:1015E000034940F0FD7040F08060086070470000E3
:1015F0000CED00E0704700000349044A31F8101078
:1016000052F82000416170470C26000804000020B9
:101610000349044A31F8101052F820000161704764
:101620000C26000804000020044951F82010CA6864
:10163000034B33F810005040C8607047040000208E
:101640000C26000803494A6822F4404210434860CF
:101650007047000000100240044A0029D16914BFFD
:10166000084321EA0000D0617047000000100240EA
:10167000044A0029116914BF084321EA00001061DF
:101680007047000000100240044A0029916914BF0D
:10169000084321EA000090617047000000100240FA
:1016A00026494B68264A13F00C0318BF042B01D0BF
:1016B000082B01D0026015E04A684B6802F47012F2
:1016C0004FF0020C0CEB924213F4803F03D04B68B6
:1016D00013F4003F03D01B4B5A43026002E0184B47
:1016E0005A4302604A6802F0F0021309164AD35CBA
:1016F000D0F800C02CFA03F34360D1F804C00CF416
:10170000E06C4FEA1C2C12F80CC023FA0CFCC0F859
:1017100008C0D1F804C00CF4605C4FEADC2C12F86D
:101720000C2023FA02F2C2604968084B01F44041E0
:10173000890B595CB2FBF1F1016170470010024066
:1017400000127A0000093D00940100209001002061
:1017500003494A6822F4E062104348607047000081
:10176000001002407047704770470000184810B5DD
:101770008188491C09B28180042904DD002181800F
:10178000FFF756FD11E0144C12492046FFF700FE0A
:1017900012492046FFF7FFFD012251022046FFF7C4
:1017A00071FE01212046FFF746FE0D480178491CD5
:1017B00001700C48FFF79FF80B490A88904234BF2C
:1017C000501E501C0880BDE8104000F079B90000A0
:1017D0000C01002000070010005800400B470003D8
:1017E000EA00002000240140EC0000202F4801689E
:1017F00041F00101016041682D4A114041600168DA
:1018000021F4102121F080710160016821F4802110
:10181000016042684FF41F0122F4FE0242608160C1
:101820000268002142F4803202600268491C12F40E
:10183000003F02D1B1F5A06FF7D1016811F4003F6C
:101840002FD01C490A6842F010020A600A6822F090
:1018500003020A600A6842F001020A6041684160BE
:101860004168416041684160416821F47C114160F8
:10187000416841F4F8114160016841F080710160F4
:10188000016811F0007FFBD0416821F00301416045
:10189000416841F002014160416801F00C010829F2
:1018A000FAD105494FF0006008607047001002400F
:1018B0000000FFF80020024008ED00E0704770478C
:1018C0007047000030B587B04FF6FF70ADF81400D8
:1018D0000520ADF810000024134DADF81640ADF80A
:1018E000124004A9284600F09DF8ADF80040012000
:1018F000ADF8020040F2DC50ADF80600ADF808404B
:101900006946284600F044F80021284600F082F895
:1019100001220221284600F033F80121284600F078
:1019200024F807B030BD00000004004010B50B4C97
:101930000221204600F016F80948007800281CBF54
:101940000220FFF771FE204600F018F800F2DC508C
:1019500081B22046BDE8104000F062B800040040AB
:10196000E8000020C943018270470029018814BFA4
:1019700041F0010121F0010101807047808E704724
:10198000002A828914BF114322EA01018181704734
:1019900070B4028C22F001020284028C8388B0F8B9
:1019A00018C00D880C892CF0730C22F002024E88AE
:1019B00045EA0C0C22433243A0F18045B5F596353B
:1019C0001CBFA0F18044B4F59A340DD0A0F180443E
:1019D000B4F5A0341FBFA0F18044B4F5A234A0F147
:1019E0008044B4F5A4340DD14C8922F0080222437E
:1019F0008C8822F0040222438D8923F44073CC8921
:101A00002B4323438380A0F818C0C98881860284B1
:101A100070BC7047028B22F00802114301837047AB
:101A20008186704710B40288234BDFF890C098423B
:101A300018BF604511D0B0F1804F1CBFA0F18044A9
:101A4000B4F5806409D0A0F18044B4F500641CBFF3
:101A5000A0F18044B4F5406403D14C8822F07002B8
:101A60002243A0F18044B4F580541CBFA0F180440F
:101A7000B4F5A05403D0CC8822F4407222430280F3
:101A80008A88984282850A88028518BF60450DD0F1
:101A9000A0F18042B2F5A0321FBFA0F18042B2F5A2
:101AA000A232A0F18042B2F5A43201D1097A0186B6
:101AB0000121818210BC7047002C0140003401409C
:101AC00004484169002908BF70474169491E4161C6
:101AD00070470000E800002070B5134E40F22771F7
:101AE000304600F065F8002808BF70BD0F4D104C5F
:101AF0006078295C401C6070304600F01BF90D498D
:101B000060780978884205D0284410F8010C0A282A
:101B100018BF70BD002240F22771304600F06FF808
:101B20000020607070BD00000038014010000020EF
:101B30000C0100200001002010B5044800F0F6F868
:101B4000BDE81040C0B200F06FBC0000004400408F
:101B50000029818914BF41F4005121F40051818191
:101B60007047000010B584B04FF4E13000900020C1
:101B7000ADF804004FF4C061ADF80600ADF80810F0
:101B8000ADF80C000C20094CADF80A00694620465F
:101B900000F04EF8012240F22551204600F02FF8C7
:101BA00001212046FFF7D4FF04B010BD00380140EA
:101BB00010B401F01F0201240023C1F3421C04FAF7
:101BC00002F2BCF1010F04BFB0F80CC00CEA020233
:101BD00008D0BCF1020F0CBFB0F810C0B0F814C0B0
:101BE0000CEA0202090A008804FA01F1002A00EA5C
:101BF00001001CBF00280123184610BC7047C1F328
:101C0000421301F01F014FF0010C0CFA01F1012BFE
:101C100008BF0C3003D0022B0CBF10301430002A48
:101C2000026814BF114322EA0101016070470000FD
:101C300030B50446008A85B00D464CF6FF71084069
:101C4000E98808432082A0894EF6F3110840A9884C
:101C50002A8911436A8910430843A081A08A4FF65C
:101C6000FF410840A9890843A0826846FFF718FD94
:101C7000A4F18040B0F59C300CBF03980298A18974
:101C800011F4004F00EBC00101EB0010296814BFF4
:101C900049008900B0FBF1F0114A6FF0180CA2FB6B
:101CA0000031490909010B0903FB0CF3B4F80CC01E
:101CB00000EB830032231CF4004F14BF03EBC00081
:101CC00003EB0010A2FB00204FEA501014BF00F0FD
:101CD000070000F00F000843208105B030BD000070
:101CE0001F85EB5110B584B04FF4164000900020D2
:101CF000ADF80400ADF80600ADF80800ADF80C0032
:101D00000420094CADF80A0069462046FFF790FF11
:101D1000012240F225512046FFF771FF01212046A4
:101D2000FFF716FF04B010BD004400408088C0F3E8
:101D300008007047C1F30801818070477047FEE7D3
:101D400002E008C8121F08C1002AFAD17047704784
:101D5000002001E001C1121F002AFBD170470000E2
:101D60002DE9F04702462E480027DFF8B880C0E989
:101D700007872D4B476253F82130C2EBC30600F1B1
:101D80002C0202EB810542F82160284990F800C03E
:101D90004A422B69BCF1020F18BF002408D1F41885
:101DA0009442C8BF44F6206402DCA142C8BF0C467E
:101DB0002C61AB68F31A43608B42B8BF416002DB11
:101DC0009A42B8BF42604068FEF7BFFB3946FEF753
:101DD00001FA81462046FEF7B8FB3946FEF7FAF9CC
:101DE00004463046FEF7B1FB4146FEF7F3F92146C3
:101DF000FEF798F94946FEF795F9FEF7CDFB42F25A
:101E00001071A8618842C8BF42F210700849A861E9
:101E10008842D8BF0846AE60A861BDE8F0870000E0
:101E20002801002023DBF93DE8010020E0B1FFFF9D
:101E3000F0D8FFFF82B0FFF7D9FC4FF48060FFF7C6
:101E400087FC4FF48040FFF7FDFB01210D20FFF7D9
:101E50001BFC01210220FFF7FFFB01214802FFF7D5
:101E600013FC01214805FFF7F7FB01218805FFF767
:101E7000F3FB01218803FFF707FC01214804FFF76A
:101E8000EBFB4FF44070FFF7ABFB1F208DF8000019
:101E900001248DF801408DF802408DF8034068461A
:101EA000FFF769FB21208DF800008DF801408DF8C7
:101EB00002408DF803406846FFF75DFB1D208DF85A
:101EC000000003258DF801508DF802408DF8034085
:101ED0006846FFF750FB25208DF800008DF8015073
:101EE00002208DF802008DF803406846FFF743FB9F
:101EF00026208DF800008DF801508DF802508DF8E5
:101F000003406846FFF737FB4FF0E024202084F8B9
:101F1000230DFFF74BF8FFF70BF8FEF7EDFDFEF78B
:101F2000E3FF704D45F25550291DFEF7E7FE42F6DE
:101F30003336002818BF6E606A4946F26660FEF7C5
:101F4000DDFE002818BF2E6005F1080147F277700A
:101F5000FEF7D4FE002818BFAE6005F10C0148F66C
:101F60008800FEF7CBFE00281CBF42F26C00E86040
:101F70005D484FF47A710068B0FBF1F0B0F1807FFA
:101F80007ED220F07F40401E6061F02084F8230D57
:101F90004FF0000AC4F818A007202061FFF7E2FD07
:101FA000FFF7A0FEFFF744F9FEF75AFCFFF78AFCA3
:101FB000FFF7FEF9DFF8349140F6B830C9F81400A5
:101FC000D9F814000028FBD1494DE98842F2FC10F1
:101FD00081423CBFA988814213D20120FFF718FB40
:101FE00042F22830A9888142FCD364204C46C9F8CB
:101FF000140060690028FCD10120FFF7FDFAFEF70C
:102000001BFD00263B4C3746B04635464FF0140BBF
:10201000062238491D2000F07DFA20786178000200
:1020200000B208430644A078E178000200B20843F9
:10203000074420796179000200B208438044C9F85E
:1020400014B000BFD9F814000028FBD16D1C642D1A
:10205000DEDB294880FB06214A11A2EBE171A9F8D9
:102060000C1080FB07214A11A2EBE171A9F80E10B8
:1020700080FB08104111A1EBE070A9F8100000E00E
:102080002FE00020FFF7C4FA40F2AE765FF00105C2
:10209000B9F802000428FBD9A9F802A006221549C4
:1020A0001D2000F037FA2088B9F80C3040BA61885A
:1020B000A288C01AA9F80600B9F80E0049BA081A91
:1020C000A9F80800B9F8100052BA101AA9F80A00C5
:1020D00000F014F8B9F80400864288BF89F800506F
:1020E000D6E7FEE7CC010020A4010020E800002094
:1020F000B8010020DC0100201F85EB512DE9F05FC5
:10210000644DE8886449C968401AFEF727FA00223E
:10211000624BFEF7ABF9FEF758FA614EF0605E488D
:1021200029884068401A706068885B490968401ACD
:102130003060A88858498968401AB0605948002121
:10214000B0F90000FFF70CFE57480121B0F900007C
:10215000FFF706FE5548A989B0F90000544CDFF896
:102160005481C4F80880B16804F1540600EB81077B
:1021700037607068381AFEF7E8F92169FEF72AF827
:102180008146B068FEF7E1F9E168FEF723F8824680
:102190003846FEF7DAF94146FEF71CF85146FDF7DE
:1021A000C1FF4946FEF710F8FEF7F6F97760F060D8
:1021B000E888FEF7E4F9DFF80081DFF80091424695
:1021C0004B46FEF7E2F806460F466069FEF7C6F991
:1021D000DFF8ECA0DFF8ECB052465B46FEF7D5F82E
:1021E0003B463246FEF72CF8FEF7EFF906466061F3
:1021F0006889FEF7C4F942464B46FEF7C6F8074623
:102200000D46A069FEF7AAF952465B46FEF7BDF8F7
:102210003A462B46FEF714F8FEF7D7F9A0610246BE
:10222000237800202849012542F2283C9BB143F243
:10223000D40742F2FC18012B18D0022B18BFBDE8BE
:10224000F09F00F043F8A069B842BCBF6069404508
:1022500009DBBDE8F09F0870C8704870887062455F
:10226000D8BFBDE8F09F2570BDE8F09F1E230B701E
:10227000CB704B708B709445C4BF2070BDE8F09F4D
:102280009742BDBF464502202070BDE8F09FBDE8E3
:10229000F09F0000B8010020CC0100200000F83FB2
:1022A000E8010020EE000020F0000020F2000020F5
:1022B00028010020CDCC4C3D989999999999B93F26
:1022C000CDCCCCCCCCCCEC3FE40000202DE9F0030D
:1022D0005148DFF84881524BC56808F12800D8F80A
:1022E0001870C668E91B881983FB00108110A1EBE8
:1022F000E070A8F12C014B4A886292F800C0844536
:1023000006DCA0EB0C04142CC8BF0CF1140005E093
:10231000ACEB0004142CC8BFACF114004FF01E0C41
:10232000FF2488621E28B8BF82F800C003DBFF28A4
:10233000CCBF14701070E819304483FB0070871014
:10234000A7EBE0708862D778874207DCA0EB07092B
:10235000B9F1140FC8BF07F1140006E0A7EB00099C
:10236000B9F1140FC8BFA7F1140088621E28B8BFC6
:1023700082F803C003DBFF28CCBFD470D070D8F83C
:102380001C80A5EB0800801B83FB00708710A7EB67
:10239000E07088625778874207DCA0EB0709B9F143
:1023A000140FC8BF07F1140006E0A7EB0009B9F14C
:1023B000140FC8BFA7F1140088621E28B8BF82F8A6
:1023C00001C003DBFF28CCBF5470507005EB080040
:1023D000801B83FB00308310A3EBE070886293784E
:1023E000834205DCC51A142DC8BF03F1140004E0B4
:1023F0001D1A142DC8BFA3F1140088621E28BEBF89
:1024000082F802C0BDE8F0037047FF28CCBF94708B
:102410009070BDE8F0037047E801002054010020EF
:10242000ABAAAA2AE400002000233349FF2801BFF9
:102430004A78FF2A0B708B7008BF7047F0B42E4AA1
:1024400091F800C094780832BCF1000F1DD0CD780F
:10245000AC451FD96FEA040C0CF0FF0C81F802C0E8
:10246000BCF1FF0F04BF4FF0FE0C81F802C00CF06E
:10247000FF0C60453CD1214C92F800C06578E678AD
:102480002779BCF11F0F15D10EE01F280CBF0523C3
:102490000423CB7002F80C0022188A700CF10102A0
:1024A0000A704870F0BC7047154C2570154C2670AA
:1024B000154C27700CF0F004102C19D10CF00F04FF
:1024C0000A2C15D2DFF844C08CF8015092788CF8B1
:1024D00000208CF803600E4D8CF80270BCF80020D0
:1024E00025F81420621CD4B2BCF8022025F8142070
:1024F0000B708B70D5E70000180100202001002030
:102500000B010020E30000200A0100201C01002034
:10251000B80100202DE9F047364F80460E4615469B
:102520004FF400313846FEF798FF0028F8D101211A
:102530003846FEF780FF304C38462146FEF71BFF39
:102540000028F9D00022D0213846FFF708F8DFF83C
:10255000AC9038464946FEF70EFF0028F9D04146B8
:102560003846FFF704F8DFF8988038464146FEF712
:1025700002FF0028F9D001213846FEF75CFF214612
:102580003846FEF7F8FE0028F9D00122D0213C465B
:102590003846FEF7E4FF1B4F20463946FEF7EBFEB8
:1025A0000028F9D0002D18BF174F1CD0012D07D1DE
:1025B00000212046FEF7D6FE01212046FEF744FF0B
:1025C00039462046FEF7D7FE58B1022D03D100212F
:1025D0002046FEF7C7FE2046FEF7BEFF06F8010BB9
:1025E0006D1E002DE2D12046BDE8F0470121FEF727
:1025F000B9BE000000540040010003008200070043
:1026000084000700020003004000030010002000C7
:10261000200000003426000800000020B80100005F
:10262000C007000898260008B801002040040000F8
:10263000501D0008513C0801400418120C01404292
:10264000756666657220686173206E65760A080F8C
:10265000B16265656E207772697474656E212001C0
:10266000A10312102712D220095555666677778884
:1026700088121B0245084BDB170401200312C076A9
:102680003C020406852D010203040415060708090F
:082690008451250269140000C9
:04000005080000ED02
:00000001FF
